{
  "_format": "hh-sol-artifact-1",
  "contractName": "ImpactToken",
  "sourceName": "contracts/ImpactToken.sol",
  "abi": [
    {
      "inputs": [
        {
          "internalType": "address",
          "name": "initialOwner",
          "type": "address"
        },
        {
          "internalType": "address",
          "name": "_aiOracleAddress",
          "type": "address"
        }
      ],
      "stateMutability": "nonpayable",
      "type": "constructor"
    },
    {
      "inputs": [
        {
          "internalType": "address",
          "name": "sender",
          "type": "address"
        },
        {
          "internalType": "uint256",
          "name": "balance",
          "type": "uint256"
        },
        {
          "internalType": "uint256",
          "name": "needed",
          "type": "uint256"
        },
        {
          "internalType": "uint256",
          "name": "tokenId",
          "type": "uint256"
        }
      ],
      "name": "ERC1155InsufficientBalance",
      "type": "error"
    },
    {
      "inputs": [
        {
          "internalType": "address",
          "name": "approver",
          "type": "address"
        }
      ],
      "name": "ERC1155InvalidApprover",
      "type": "error"
    },
    {
      "inputs": [
        {
          "internalType": "uint256",
          "name": "idsLength",
          "type": "uint256"
        },
        {
          "internalType": "uint256",
          "name": "valuesLength",
          "type": "uint256"
        }
      ],
      "name": "ERC1155InvalidArrayLength",
      "type": "error"
    },
    {
      "inputs": [
        {
          "internalType": "address",
          "name": "operator",
          "type": "address"
        }
      ],
      "name": "ERC1155InvalidOperator",
      "type": "error"
    },
    {
      "inputs": [
        {
          "internalType": "address",
          "name": "receiver",
          "type": "address"
        }
      ],
      "name": "ERC1155InvalidReceiver",
      "type": "error"
    },
    {
      "inputs": [
        {
          "internalType": "address",
          "name": "sender",
          "type": "address"
        }
      ],
      "name": "ERC1155InvalidSender",
      "type": "error"
    },
    {
      "inputs": [
        {
          "internalType": "address",
          "name": "operator",
          "type": "address"
        },
        {
          "internalType": "address",
          "name": "owner",
          "type": "address"
        }
      ],
      "name": "ERC1155MissingApprovalForAll",
      "type": "error"
    },
    {
      "inputs": [
        {
          "internalType": "address",
          "name": "owner",
          "type": "address"
        }
      ],
      "name": "OwnableInvalidOwner",
      "type": "error"
    },
    {
      "inputs": [
        {
          "internalType": "address",
          "name": "account",
          "type": "address"
        }
      ],
      "name": "OwnableUnauthorizedAccount",
      "type": "error"
    },
    {
      "anonymous": false,
      "inputs": [
        {
          "indexed": true,
          "internalType": "address",
          "name": "account",
          "type": "address"
        },
        {
          "indexed": true,
          "internalType": "address",
          "name": "operator",
          "type": "address"
        },
        {
          "indexed": false,
          "internalType": "bool",
          "name": "approved",
          "type": "bool"
        }
      ],
      "name": "ApprovalForAll",
      "type": "event"
    },
    {
      "anonymous": false,
      "inputs": [
        {
          "indexed": true,
          "internalType": "address",
          "name": "to",
          "type": "address"
        },
        {
          "indexed": true,
          "internalType": "uint256",
          "name": "id",
          "type": "uint256"
        },
        {
          "indexed": false,
          "internalType": "uint256",
          "name": "amount",
          "type": "uint256"
        }
      ],
      "name": "ImpactMinted",
      "type": "event"
    },
    {
      "anonymous": false,
      "inputs": [
        {
          "indexed": false,
          "internalType": "address",
          "name": "oldOracle",
          "type": "address"
        },
        {
          "indexed": false,
          "internalType": "address",
          "name": "newOracle",
          "type": "address"
        }
      ],
      "name": "OracleUpdated",
      "type": "event"
    },
    {
      "anonymous": false,
      "inputs": [
        {
          "indexed": true,
          "internalType": "address",
          "name": "previousOwner",
          "type": "address"
        },
        {
          "indexed": true,
          "internalType": "address",
          "name": "newOwner",
          "type": "address"
        }
      ],
      "name": "OwnershipTransferred",
      "type": "event"
    },
    {
      "anonymous": false,
      "inputs": [
        {
          "indexed": true,
          "internalType": "address",
          "name": "operator",
          "type": "address"
        },
        {
          "indexed": true,
          "internalType": "address",
          "name": "from",
          "type": "address"
        },
        {
          "indexed": true,
          "internalType": "address",
          "name": "to",
          "type": "address"
        },
        {
          "indexed": false,
          "internalType": "uint256[]",
          "name": "ids",
          "type": "uint256[]"
        },
        {
          "indexed": false,
          "internalType": "uint256[]",
          "name": "values",
          "type": "uint256[]"
        }
      ],
      "name": "TransferBatch",
      "type": "event"
    },
    {
      "anonymous": false,
      "inputs": [
        {
          "indexed": true,
          "internalType": "address",
          "name": "operator",
          "type": "address"
        },
        {
          "indexed": true,
          "internalType": "address",
          "name": "from",
          "type": "address"
        },
        {
          "indexed": true,
          "internalType": "address",
          "name": "to",
          "type": "address"
        },
        {
          "indexed": false,
          "internalType": "uint256",
          "name": "id",
          "type": "uint256"
        },
        {
          "indexed": false,
          "internalType": "uint256",
          "name": "value",
          "type": "uint256"
        }
      ],
      "name": "TransferSingle",
      "type": "event"
    },
    {
      "anonymous": false,
      "inputs": [
        {
          "indexed": false,
          "internalType": "string",
          "name": "value",
          "type": "string"
        },
        {
          "indexed": true,
          "internalType": "uint256",
          "name": "id",
          "type": "uint256"
        }
      ],
      "name": "URI",
      "type": "event"
    },
    {
      "inputs": [],
      "name": "aiOracleAddress",
      "outputs": [
        {
          "internalType": "address",
          "name": "",
          "type": "address"
        }
      ],
      "stateMutability": "view",
      "type": "function"
    },
    {
      "inputs": [
        {
          "internalType": "address",
          "name": "account",
          "type": "address"
        },
        {
          "internalType": "uint256",
          "name": "id",
          "type": "uint256"
        }
      ],
      "name": "balanceOf",
      "outputs": [
        {
          "internalType": "uint256",
          "name": "",
          "type": "uint256"
        }
      ],
      "stateMutability": "view",
      "type": "function"
    },
    {
      "inputs": [
        {
          "internalType": "address[]",
          "name": "accounts",
          "type": "address[]"
        },
        {
          "internalType": "uint256[]",
          "name": "ids",
          "type": "uint256[]"
        }
      ],
      "name": "balanceOfBatch",
      "outputs": [
        {
          "internalType": "uint256[]",
          "name": "",
          "type": "uint256[]"
        }
      ],
      "stateMutability": "view",
      "type": "function"
    },
    {
      "inputs": [
        {
          "internalType": "address",
          "name": "account",
          "type": "address"
        },
        {
          "internalType": "address",
          "name": "operator",
          "type": "address"
        }
      ],
      "name": "isApprovedForAll",
      "outputs": [
        {
          "internalType": "bool",
          "name": "",
          "type": "bool"
        }
      ],
      "stateMutability": "view",
      "type": "function"
    },
    {
      "inputs": [],
      "name": "owner",
      "outputs": [
        {
          "internalType": "address",
          "name": "",
          "type": "address"
        }
      ],
      "stateMutability": "view",
      "type": "function"
    },
    {
      "inputs": [],
      "name": "renounceOwnership",
      "outputs": [],
      "stateMutability": "nonpayable",
      "type": "function"
    },
    {
      "inputs": [
        {
          "internalType": "address",
          "name": "from",
          "type": "address"
        },
        {
          "internalType": "address",
          "name": "to",
          "type": "address"
        },
        {
          "internalType": "uint256[]",
          "name": "ids",
          "type": "uint256[]"
        },
        {
          "internalType": "uint256[]",
          "name": "values",
          "type": "uint256[]"
        },
        {
          "internalType": "bytes",
          "name": "data",
          "type": "bytes"
        }
      ],
      "name": "safeBatchTransferFrom",
      "outputs": [],
      "stateMutability": "nonpayable",
      "type": "function"
    },
    {
      "inputs": [
        {
          "internalType": "address",
          "name": "from",
          "type": "address"
        },
        {
          "internalType": "address",
          "name": "to",
          "type": "address"
        },
        {
          "internalType": "uint256",
          "name": "id",
          "type": "uint256"
        },
        {
          "internalType": "uint256",
          "name": "value",
          "type": "uint256"
        },
        {
          "internalType": "bytes",
          "name": "data",
          "type": "bytes"
        }
      ],
      "name": "safeTransferFrom",
      "outputs": [],
      "stateMutability": "nonpayable",
      "type": "function"
    },
    {
      "inputs": [
        {
          "internalType": "address",
          "name": "_newOracle",
          "type": "address"
        }
      ],
      "name": "setAIOracle",
      "outputs": [],
      "stateMutability": "nonpayable",
      "type": "function"
    },
    {
      "inputs": [
        {
          "internalType": "address",
          "name": "operator",
          "type": "address"
        },
        {
          "internalType": "bool",
          "name": "approved",
          "type": "bool"
        }
      ],
      "name": "setApprovalForAll",
      "outputs": [],
      "stateMutability": "nonpayable",
      "type": "function"
    },
    {
      "inputs": [
        {
          "internalType": "bytes4",
          "name": "interfaceId",
          "type": "bytes4"
        }
      ],
      "name": "supportsInterface",
      "outputs": [
        {
          "internalType": "bool",
          "name": "",
          "type": "bool"
        }
      ],
      "stateMutability": "view",
      "type": "function"
    },
    {
      "inputs": [
        {
          "internalType": "address",
          "name": "newOwner",
          "type": "address"
        }
      ],
      "name": "transferOwnership",
      "outputs": [],
      "stateMutability": "nonpayable",
      "type": "function"
    },
    {
      "inputs": [
        {
          "internalType": "uint256",
          "name": "",
          "type": "uint256"
        }
      ],
      "name": "uri",
      "outputs": [
        {
          "internalType": "string",
          "name": "",
          "type": "string"
        }
      ],
      "stateMutability": "view",
      "type": "function"
    },
    {
      "inputs": [
        {
          "internalType": "address",
          "name": "to",
          "type": "address"
        },
        {
          "internalType": "uint256",
          "name": "id",
          "type": "uint256"
        },
        {
          "internalType": "uint256",
          "name": "amount",
          "type": "uint256"
        },
        {
          "internalType": "bytes",
          "name": "data",
          "type": "bytes"
        }
      ],
      "name": "verifyAndMint",
      "outputs": [],
      "stateMutability": "nonpayable",
      "type": "function"
    }
  ],
  "bytecode": "0x608060405234801562000010575f80fd5b5060405162002b2538038062002b2583398181016040528101906200003691906200026d565b816040518060600160405280602b815260200162002afa602b913962000062816200013060201b60201c565b505f73ffffffffffffffffffffffffffffffffffffffff168173ffffffffffffffffffffffffffffffffffffffff1603620000d6575f6040517f1e4fbdf7000000000000000000000000000000000000000000000000000000008152600401620000cd9190620002c3565b60405180910390fd5b620000e7816200014560201b60201c565b508060045f6101000a81548173ffffffffffffffffffffffffffffffffffffffff021916908373ffffffffffffffffffffffffffffffffffffffff160217905550505062000626565b806002908162000141919062000542565b5050565b5f60035f9054906101000a900473ffffffffffffffffffffffffffffffffffffffff1690508160035f6101000a81548173ffffffffffffffffffffffffffffffffffffffff021916908373ffffffffffffffffffffffffffffffffffffffff1602179055508173ffffffffffffffffffffffffffffffffffffffff168173ffffffffffffffffffffffffffffffffffffffff167f8be0079c531659141344cd1fd0a4f28419497f9722a3daafe3b4186f6b6457e060405160405180910390a35050565b5f80fd5b5f73ffffffffffffffffffffffffffffffffffffffff82169050919050565b5f62000237826200020c565b9050919050565b62000249816200022b565b811462000254575f80fd5b50565b5f8151905062000267816200023e565b92915050565b5f806040838503121562000286576200028562000208565b5b5f620002958582860162000257565b9250506020620002a88582860162000257565b9150509250929050565b620002bd816200022b565b82525050565b5f602082019050620002d85f830184620002b2565b92915050565b5f81519050919050565b7f4e487b71000000000000000000000000000000000000000000000000000000005f52604160045260245ffd5b7f4e487b71000000000000000000000000000000000000000000000000000000005f52602260045260245ffd5b5f60028204905060018216806200035a57607f821691505b60208210810362000370576200036f62000315565b5b50919050565b5f819050815f5260205f209050919050565b5f6020601f8301049050919050565b5f82821b905092915050565b5f60088302620003d47fffffffffffffffffffffffffffffffffffffffffffffffffffffffffffffffff8262000397565b620003e0868362000397565b95508019841693508086168417925050509392505050565b5f819050919050565b5f819050919050565b5f6200042a620004246200041e84620003f8565b62000401565b620003f8565b9050919050565b5f819050919050565b62000445836200040a565b6200045d620004548262000431565b848454620003a3565b825550505050565b5f90565b6200047362000465565b620004808184846200043a565b505050565b5b81811015620004a7576200049b5f8262000469565b60018101905062000486565b5050565b601f821115620004f657620004c08162000376565b620004cb8462000388565b81016020851015620004db578190505b620004f3620004ea8562000388565b83018262000485565b50505b505050565b5f82821c905092915050565b5f620005185f1984600802620004fb565b1980831691505092915050565b5f62000532838362000507565b9150826002028217905092915050565b6200054d82620002de565b67ffffffffffffffff811115620005695762000568620002e8565b5b62000575825462000342565b62000582828285620004ab565b5f60209050601f831160018114620005b8575f8415620005a3578287015190505b620005af858262000525565b8655506200061e565b601f198416620005c88662000376565b5f5b82811015620005f157848901518255600182019150602085019450602081019050620005ca565b868310156200061157848901516200060d601f89168262000507565b8355505b6001600288020188555050505b505050505050565b6124c680620006345f395ff3fe608060405234801561000f575f80fd5b50600436106100e7575f3560e01c8063715018a61161008a578063a22cb46511610064578063a22cb46514610245578063e985e9c514610261578063f242432a14610291578063f2fde38b146102ad576100e7565b8063715018a6146101ff5780637b15e5df146102095780638da5cb5b14610227576100e7565b80631aa632b3116100c65780631aa632b31461017b5780632ae63e66146101975780632eb2c2d6146101b35780634e1273f4146101cf576100e7565b8062fdd58e146100eb57806301ffc9a71461011b5780630e89341c1461014b575b5f80fd5b61010560048036038101906101009190611841565b6102c9565b604051610112919061188e565b60405180910390f35b610135600480360381019061013091906118fc565b61031e565b6040516101429190611941565b60405180910390f35b6101656004803603810190610160919061195a565b6103ff565b6040516101729190611a0f565b60405180910390f35b61019560048036038101906101909190611a2f565b610491565b005b6101b160048036038101906101ac9190611b86565b61053b565b005b6101cd60048036038101906101c89190611cca565b61062b565b005b6101e960048036038101906101e49190611e55565b610650565b6040516101f69190611f82565b60405180910390f35b610207610757565b005b61021161076a565b60405161021e9190611fb1565b60405180910390f35b61022f61078f565b60405161023c9190611fb1565b60405180910390f35b61025f600480360381019061025a9190611ff4565b6107b7565b005b61027b60048036038101906102769190612032565b6107cd565b6040516102889190611941565b60405180910390f35b6102ab60048036038101906102a69190612070565b61085b565b005b6102c760048036038101906102c29190611a2f565b610880565b005b5f805f8381526020019081526020015f205f8473ffffffffffffffffffffffffffffffffffffffff1673ffffffffffffffffffffffffffffffffffffffff1681526020019081526020015f2054905092915050565b5f7fd9b67a26000000000000000000000000000000000000000000000000000000007bffffffffffffffffffffffffffffffffffffffffffffffffffffffff1916827bffffffffffffffffffffffffffffffffffffffffffffffffffffffff191614806103e857507f0e89341c000000000000000000000000000000000000000000000000000000007bffffffffffffffffffffffffffffffffffffffffffffffffffffffff1916827bffffffffffffffffffffffffffffffffffffffffffffffffffffffff1916145b806103f857506103f782610904565b5b9050919050565b60606002805461040e90612130565b80601f016020809104026020016040519081016040528092919081815260200182805461043a90612130565b80156104855780601f1061045c57610100808354040283529160200191610485565b820191905f5260205f20905b81548152906001019060200180831161046857829003601f168201915b50505050509050919050565b61049961096d565b5f60045f9054906101000a900473ffffffffffffffffffffffffffffffffffffffff1690508160045f6101000a81548173ffffffffffffffffffffffffffffffffffffffff021916908373ffffffffffffffffffffffffffffffffffffffff1602179055507f078c3b417dadf69374a59793b829c52001247130433427049317bde56607b1b7818360405161052f929190612160565b60405180910390a15050565b60045f9054906101000a900473ffffffffffffffffffffffffffffffffffffffff1673ffffffffffffffffffffffffffffffffffffffff163373ffffffffffffffffffffffffffffffffffffffff16146105ca576040517f08c379a00000000000000000000000000000000000000000000000000000000081526004016105c1906121f7565b60405180910390fd5b6105d6848484846109f4565b828473ffffffffffffffffffffffffffffffffffffffff167f26dbe6525e1257f3b00d849f2dfe3f7042d35c1420de7ab8cf8b9cf4c6317ef78460405161061d919061188e565b60405180910390a350505050565b61063c610636610a8a565b86610a91565b6106498585858585610b1c565b5050505050565b6060815183511461069c57815183516040517f5b059991000000000000000000000000000000000000000000000000000000008152600401610693929190612215565b60405180910390fd5b5f835167ffffffffffffffff8111156106b8576106b7611a62565b5b6040519080825280602002602001820160405280156106e65781602001602082028036833780820191505090505b5090505f5b845181101561074c5761072261070a8287610c1290919063ffffffff16565b61071d8387610c2590919063ffffffff16565b6102c9565b8282815181106107355761073461223c565b5b6020026020010181815250508060010190506106eb565b508091505092915050565b61075f61096d565b6107685f610c38565b565b60045f9054906101000a900473ffffffffffffffffffffffffffffffffffffffff1681565b5f60035f9054906101000a900473ffffffffffffffffffffffffffffffffffffffff16905090565b6107c96107c2610a8a565b8383610cfb565b5050565b5f60015f8473ffffffffffffffffffffffffffffffffffffffff1673ffffffffffffffffffffffffffffffffffffffff1681526020019081526020015f205f8373ffffffffffffffffffffffffffffffffffffffff1673ffffffffffffffffffffffffffffffffffffffff1681526020019081526020015f205f9054906101000a900460ff16905092915050565b61086c610866610a8a565b86610a91565b6108798585858585610ed4565b5050505050565b61088861096d565b5f73ffffffffffffffffffffffffffffffffffffffff168173ffffffffffffffffffffffffffffffffffffffff16036108f8575f6040517f1e4fbdf70000000000000000000000000000000000000000000000000000000081526004016108ef9190611fb1565b60405180910390fd5b61090181610c38565b50565b5f7f01ffc9a7000000000000000000000000000000000000000000000000000000007bffffffffffffffffffffffffffffffffffffffffffffffffffffffff1916827bffffffffffffffffffffffffffffffffffffffffffffffffffffffff1916149050919050565b610975610a8a565b73ffffffffffffffffffffffffffffffffffffffff1661099361078f565b73ffffffffffffffffffffffffffffffffffffffff16146109f2576109b6610a8a565b6040517f118cdaa70000000000000000000000000000000000000000000000000000000081526004016109e99190611fb1565b60405180910390fd5b565b5f73ffffffffffffffffffffffffffffffffffffffff168473ffffffffffffffffffffffffffffffffffffffff1603610a64575f6040517f57f447ce000000000000000000000000000000000000000000000000000000008152600401610a5b9190611fb1565b60405180910390fd5b5f80610a708585610fdb565b91509150610a825f878484875f61100b565b505050505050565b5f33905090565b8173ffffffffffffffffffffffffffffffffffffffff168173ffffffffffffffffffffffffffffffffffffffff1614158015610ad45750610ad281836107cd565b155b15610b185781816040517fe237d922000000000000000000000000000000000000000000000000000000008152600401610b0f929190612160565b60405180910390fd5b5050565b5f73ffffffffffffffffffffffffffffffffffffffff168473ffffffffffffffffffffffffffffffffffffffff1603610b8c575f6040517f57f447ce000000000000000000000000000000000000000000000000000000008152600401610b839190611fb1565b60405180910390fd5b5f73ffffffffffffffffffffffffffffffffffffffff168573ffffffffffffffffffffffffffffffffffffffff1603610bfc575f6040517f01a83514000000000000000000000000000000000000000000000000000000008152600401610bf39190611fb1565b60405180910390fd5b610c0b8585858585600161100b565b5050505050565b5f60208202602084010151905092915050565b5f60208202602084010151905092915050565b5f60035f9054906101000a900473ffffffffffffffffffffffffffffffffffffffff1690508160035f6101000a81548173ffffffffffffffffffffffffffffffffffffffff021916908373ffffffffffffffffffffffffffffffffffffffff1602179055508173ffffffffffffffffffffffffffffffffffffffff168173ffffffffffffffffffffffffffffffffffffffff167f8be0079c531659141344cd1fd0a4f28419497f9722a3daafe3b4186f6b6457e060405160405180910390a35050565b5f73ffffffffffffffffffffffffffffffffffffffff168373ffffffffffffffffffffffffffffffffffffffff1603610d6b575f6040517f3e31884e000000000000000000000000000000000000000000000000000000008152600401610d629190611fb1565b60405180910390fd5b5f73ffffffffffffffffffffffffffffffffffffffff168273ffffffffffffffffffffffffffffffffffffffff1603610ddb575f6040517fced3e100000000000000000000000000000000000000000000000000000000008152600401610dd29190611fb1565b60405180910390fd5b8060015f8573ffffffffffffffffffffffffffffffffffffffff1673ffffffffffffffffffffffffffffffffffffffff1681526020019081526020015f205f8473ffffffffffffffffffffffffffffffffffffffff1673ffffffffffffffffffffffffffffffffffffffff1681526020019081526020015f205f6101000a81548160ff0219169083151502179055508173ffffffffffffffffffffffffffffffffffffffff168373ffffffffffffffffffffffffffffffffffffffff167f17307eab39ab6107e8899845ad3d59bd9653f200f220920489ca2b5937696c3183604051610ec79190611941565b60405180910390a3505050565b5f73ffffffffffffffffffffffffffffffffffffffff168473ffffffffffffffffffffffffffffffffffffffff1603610f44575f6040517f57f447ce000000000000000000000000000000000000000000000000000000008152600401610f3b9190611fb1565b60405180910390fd5b5f73ffffffffffffffffffffffffffffffffffffffff168573ffffffffffffffffffffffffffffffffffffffff1603610fb4575f6040517f01a83514000000000000000000000000000000000000000000000000000000008152600401610fab9190611fb1565b60405180910390fd5b5f80610fc08585610fdb565b91509150610fd287878484875f61100b565b50505050505050565b60608060405191506001825283602083015260408201905060018152826020820152604081016040529250929050565b611017868686866110b5565b5f73ffffffffffffffffffffffffffffffffffffffff168573ffffffffffffffffffffffffffffffffffffffff16146110ad575f611053610a8a565b9050811561106e57611069818888888888611445565b6110ab565b5f6110825f87610c2590919063ffffffff16565b90505f6110985f87610c2590919063ffffffff16565b90506110a8838a8a85858a6115f4565b50505b505b505050505050565b80518251146110ff57815181516040517f5b0599910000000000000000000000000000000000000000000000000000000081526004016110f6929190612215565b60405180910390fd5b5f611108610a8a565b90505f5b8351811015611304575f6111298286610c2590919063ffffffff16565b90505f61113f8386610c2590919063ffffffff16565b90505f73ffffffffffffffffffffffffffffffffffffffff168873ffffffffffffffffffffffffffffffffffffffff1614611262575f805f8481526020019081526020015f205f8a73ffffffffffffffffffffffffffffffffffffffff1673ffffffffffffffffffffffffffffffffffffffff1681526020019081526020015f205490508181101561120e57888183856040517f03dee4c50000000000000000000000000000000000000000000000000000000081526004016112059493929190612269565b60405180910390fd5b8181035f808581526020019081526020015f205f8b73ffffffffffffffffffffffffffffffffffffffff1673ffffffffffffffffffffffffffffffffffffffff1681526020019081526020015f2081905550505b5f73ffffffffffffffffffffffffffffffffffffffff168773ffffffffffffffffffffffffffffffffffffffff16146112f757805f808481526020019081526020015f205f8973ffffffffffffffffffffffffffffffffffffffff1673ffffffffffffffffffffffffffffffffffffffff1681526020019081526020015f205f8282546112ef91906122d9565b925050819055505b505080600101905061110c565b5060018351036113bf575f6113225f85610c2590919063ffffffff16565b90505f6113385f85610c2590919063ffffffff16565b90508573ffffffffffffffffffffffffffffffffffffffff168773ffffffffffffffffffffffffffffffffffffffff168473ffffffffffffffffffffffffffffffffffffffff167fc3d58168c5ae7397731d063d5bbf3d657854427343f4c083240f7aacaa2d0f6285856040516113b0929190612215565b60405180910390a4505061143e565b8373ffffffffffffffffffffffffffffffffffffffff168573ffffffffffffffffffffffffffffffffffffffff168273ffffffffffffffffffffffffffffffffffffffff167f4a39dc06d4c0dbc64b70af90fd698a233a518aa5d07e595d983b8c0526c8f7fb868660405161143592919061230c565b60405180910390a45b5050505050565b5f8473ffffffffffffffffffffffffffffffffffffffff163b11156115ec578373ffffffffffffffffffffffffffffffffffffffff1663bc197c8187878686866040518663ffffffff1660e01b81526004016114a5959493929190612393565b6020604051808303815f875af19250505080156114e057506040513d601f19601f820116820180604052508101906114dd919061240d565b60015b611561573d805f811461150e576040519150601f19603f3d011682016040523d82523d5f602084013e611513565b606091505b505f81510361155957846040517f57f447ce0000000000000000000000000000000000000000000000000000000081526004016115509190611fb1565b60405180910390fd5b805160208201fd5b63bc197c8160e01b7bffffffffffffffffffffffffffffffffffffffffffffffffffffffff1916817bffffffffffffffffffffffffffffffffffffffffffffffffffffffff1916146115ea57846040517f57f447ce0000000000000000000000000000000000000000000000000000000081526004016115e19190611fb1565b60405180910390fd5b505b505050505050565b5f8473ffffffffffffffffffffffffffffffffffffffff163b111561179b578373ffffffffffffffffffffffffffffffffffffffff1663f23a6e6187878686866040518663ffffffff1660e01b8152600401611654959493929190612438565b6020604051808303815f875af192505050801561168f57506040513d601f19601f8201168201806040525081019061168c919061240d565b60015b611710573d805f81146116bd576040519150601f19603f3d011682016040523d82523d5f602084013e6116c2565b606091505b505f81510361170857846040517f57f447ce0000000000000000000000000000000000000000000000000000000081526004016116ff9190611fb1565b60405180910390fd5b805160208201fd5b63f23a6e6160e01b7bffffffffffffffffffffffffffffffffffffffffffffffffffffffff1916817bffffffffffffffffffffffffffffffffffffffffffffffffffffffff19161461179957846040517f57f447ce0000000000000000000000000000000000000000000000000000000081526004016117909190611fb1565b60405180910390fd5b505b505050505050565b5f604051905090565b5f80fd5b5f80fd5b5f73ffffffffffffffffffffffffffffffffffffffff82169050919050565b5f6117dd826117b4565b9050919050565b6117ed816117d3565b81146117f7575f80fd5b50565b5f81359050611808816117e4565b92915050565b5f819050919050565b6118208161180e565b811461182a575f80fd5b50565b5f8135905061183b81611817565b92915050565b5f8060408385031215611857576118566117ac565b5b5f611864858286016117fa565b92505060206118758582860161182d565b9150509250929050565b6118888161180e565b82525050565b5f6020820190506118a15f83018461187f565b92915050565b5f7fffffffff0000000000000000000000000000000000000000000000000000000082169050919050565b6118db816118a7565b81146118e5575f80fd5b50565b5f813590506118f6816118d2565b92915050565b5f60208284031215611911576119106117ac565b5b5f61191e848285016118e8565b91505092915050565b5f8115159050919050565b61193b81611927565b82525050565b5f6020820190506119545f830184611932565b92915050565b5f6020828403121561196f5761196e6117ac565b5b5f61197c8482850161182d565b91505092915050565b5f81519050919050565b5f82825260208201905092915050565b5f5b838110156119bc5780820151818401526020810190506119a1565b5f8484015250505050565b5f601f19601f8301169050919050565b5f6119e182611985565b6119eb818561198f565b93506119fb81856020860161199f565b611a04816119c7565b840191505092915050565b5f6020820190508181035f830152611a2781846119d7565b905092915050565b5f60208284031215611a4457611a436117ac565b5b5f611a51848285016117fa565b91505092915050565b5f80fd5b5f80fd5b7f4e487b71000000000000000000000000000000000000000000000000000000005f52604160045260245ffd5b611a98826119c7565b810181811067ffffffffffffffff82111715611ab757611ab6611a62565b5b80604052505050565b5f611ac96117a3565b9050611ad58282611a8f565b919050565b5f67ffffffffffffffff821115611af457611af3611a62565b5b611afd826119c7565b9050602081019050919050565b828183375f83830152505050565b5f611b2a611b2584611ada565b611ac0565b905082815260208101848484011115611b4657611b45611a5e565b5b611b51848285611b0a565b509392505050565b5f82601f830112611b6d57611b6c611a5a565b5b8135611b7d848260208601611b18565b91505092915050565b5f805f8060808587031215611b9e57611b9d6117ac565b5b5f611bab878288016117fa565b9450506020611bbc8782880161182d565b9350506040611bcd8782880161182d565b925050606085013567ffffffffffffffff811115611bee57611bed6117b0565b5b611bfa87828801611b59565b91505092959194509250565b5f67ffffffffffffffff821115611c2057611c1f611a62565b5b602082029050602081019050919050565b5f80fd5b5f611c47611c4284611c06565b611ac0565b90508083825260208201905060208402830185811115611c6a57611c69611c31565b5b835b81811015611c935780611c7f888261182d565b845260208401935050602081019050611c6c565b5050509392505050565b5f82601f830112611cb157611cb0611a5a565b5b8135611cc1848260208601611c35565b91505092915050565b5f805f805f60a08688031215611ce357611ce26117ac565b5b5f611cf0888289016117fa565b9550506020611d01888289016117fa565b945050604086013567ffffffffffffffff811115611d2257611d216117b0565b5b611d2e88828901611c9d565b935050606086013567ffffffffffffffff811115611d4f57611d4e6117b0565b5b611d5b88828901611c9d565b925050608086013567ffffffffffffffff811115611d7c57611d7b6117b0565b5b611d8888828901611b59565b9150509295509295909350565b5f67ffffffffffffffff821115611daf57611dae611a62565b5b602082029050602081019050919050565b5f611dd2611dcd84611d95565b611ac0565b90508083825260208201905060208402830185811115611df557611df4611c31565b5b835b81811015611e1e5780611e0a88826117fa565b845260208401935050602081019050611df7565b5050509392505050565b5f82601f830112611e3c57611e3b611a5a565b5b8135611e4c848260208601611dc0565b91505092915050565b5f8060408385031215611e6b57611e6a6117ac565b5b5f83013567ffffffffffffffff811115611e8857611e876117b0565b5b611e9485828601611e28565b925050602083013567ffffffffffffffff811115611eb557611eb46117b0565b5b611ec185828601611c9d565b9150509250929050565b5f81519050919050565b5f82825260208201905092915050565b5f819050602082019050919050565b611efd8161180e565b82525050565b5f611f0e8383611ef4565b60208301905092915050565b5f602082019050919050565b5f611f3082611ecb565b611f3a8185611ed5565b9350611f4583611ee5565b805f5b83811015611f75578151611f5c8882611f03565b9750611f6783611f1a565b925050600181019050611f48565b5085935050505092915050565b5f6020820190508181035f830152611f9a8184611f26565b905092915050565b611fab816117d3565b82525050565b5f602082019050611fc45f830184611fa2565b92915050565b611fd381611927565b8114611fdd575f80fd5b50565b5f81359050611fee81611fca565b92915050565b5f806040838503121561200a576120096117ac565b5b5f612017858286016117fa565b925050602061202885828601611fe0565b9150509250929050565b5f8060408385031215612048576120476117ac565b5b5f612055858286016117fa565b9250506020612066858286016117fa565b9150509250929050565b5f805f805f60a08688031215612089576120886117ac565b5b5f612096888289016117fa565b95505060206120a7888289016117fa565b94505060406120b88882890161182d565b93505060606120c98882890161182d565b925050608086013567ffffffffffffffff8111156120ea576120e96117b0565b5b6120f688828901611b59565b9150509295509295909350565b7f4e487b71000000000000000000000000000000000000000000000000000000005f52602260045260245ffd5b5f600282049050600182168061214757607f821691505b60208210810361215a57612159612103565b5b50919050565b5f6040820190506121735f830185611fa2565b6121806020830184611fa2565b9392505050565b7f496d70616374546f6b656e3a2043616c6c6572206973206e6f742074686520415f8201527f49204f7261636c65000000000000000000000000000000000000000000000000602082015250565b5f6121e160288361198f565b91506121ec82612187565b604082019050919050565b5f6020820190508181035f83015261220e816121d5565b9050919050565b5f6040820190506122285f83018561187f565b612235602083018461187f565b9392505050565b7f4e487b71000000000000000000000000000000000000000000000000000000005f52603260045260245ffd5b5f60808201905061227c5f830187611fa2565b612289602083018661187f565b612296604083018561187f565b6122a3606083018461187f565b95945050505050565b7f4e487b71000000000000000000000000000000000000000000000000000000005f52601160045260245ffd5b5f6122e38261180e565b91506122ee8361180e565b9250828201905080821115612306576123056122ac565b5b92915050565b5f6040820190508181035f8301526123248185611f26565b905081810360208301526123388184611f26565b90509392505050565b5f81519050919050565b5f82825260208201905092915050565b5f61236582612341565b61236f818561234b565b935061237f81856020860161199f565b612388816119c7565b840191505092915050565b5f60a0820190506123a65f830188611fa2565b6123b36020830187611fa2565b81810360408301526123c58186611f26565b905081810360608301526123d98185611f26565b905081810360808301526123ed818461235b565b90509695505050505050565b5f81519050612407816118d2565b92915050565b5f60208284031215612422576124216117ac565b5b5f61242f848285016123f9565b91505092915050565b5f60a08201905061244b5f830188611fa2565b6124586020830187611fa2565b612465604083018661187f565b612472606083018561187f565b8181036080830152612484818461235b565b9050969550505050505056fea264697066735822122052ea344cf681e21367b6c853f7c5b73a3fa8e45f6c9e2417e3077d5ad4aa9ebf64736f6c6343000818003368747470733a2f2f6170692e756e6974796875622e6170702f6d657461646174612f7b69647d2e6a736f6e",
  "linkReferences": {},
  "deployedLinkReferences": {}
}