{
  "_format": "hh-sol-artifact-1",
  "contractName": "UnityImpact",
  "sourceName": "contracts/UnityImpact.sol",
  "abi": [
    {
      "inputs": [
        {
          "internalType": "address",
          "name": "initialOwner",
          "type": "address"
        },
        {
          "internalType": "address",
          "name": "_oracleAddress",
          "type": "address"
        }
      ],
      "stateMutability": "nonpayable",
      "type": "constructor"
    },
    {
      "inputs": [],
      "name": "ECDSAInvalidSignature",
      "type": "error"
    },
    {
      "inputs": [
        {
          "internalType": "uint256",
          "name": "length",
          "type": "uint256"
        }
      ],
      "name": "ECDSAInvalidSignatureLength",
      "type": "error"
    },
    {
      "inputs": [
        {
          "internalType": "bytes32",
          "name": "s",
          "type": "bytes32"
        }
      ],
      "name": "ECDSAInvalidSignatureS",
      "type": "error"
    },
    {
      "inputs": [
        {
          "internalType": "address",
          "name": "sender",
          "type": "address"
        },
        {
          "internalType": "uint256",
          "name": "balance",
          "type": "uint256"
        },
        {
          "internalType": "uint256",
          "name": "needed",
          "type": "uint256"
        },
        {
          "internalType": "uint256",
          "name": "tokenId",
          "type": "uint256"
        }
      ],
      "name": "ERC1155InsufficientBalance",
      "type": "error"
    },
    {
      "inputs": [
        {
          "internalType": "address",
          "name": "approver",
          "type": "address"
        }
      ],
      "name": "ERC1155InvalidApprover",
      "type": "error"
    },
    {
      "inputs": [
        {
          "internalType": "uint256",
          "name": "idsLength",
          "type": "uint256"
        },
        {
          "internalType": "uint256",
          "name": "valuesLength",
          "type": "uint256"
        }
      ],
      "name": "ERC1155InvalidArrayLength",
      "type": "error"
    },
    {
      "inputs": [
        {
          "internalType": "address",
          "name": "operator",
          "type": "address"
        }
      ],
      "name": "ERC1155InvalidOperator",
      "type": "error"
    },
    {
      "inputs": [
        {
          "internalType": "address",
          "name": "receiver",
          "type": "address"
        }
      ],
      "name": "ERC1155InvalidReceiver",
      "type": "error"
    },
    {
      "inputs": [
        {
          "internalType": "address",
          "name": "sender",
          "type": "address"
        }
      ],
      "name": "ERC1155InvalidSender",
      "type": "error"
    },
    {
      "inputs": [
        {
          "internalType": "address",
          "name": "operator",
          "type": "address"
        },
        {
          "internalType": "address",
          "name": "owner",
          "type": "address"
        }
      ],
      "name": "ERC1155MissingApprovalForAll",
      "type": "error"
    },
    {
      "inputs": [],
      "name": "InvalidShortString",
      "type": "error"
    },
    {
      "inputs": [
        {
          "internalType": "address",
          "name": "owner",
          "type": "address"
        }
      ],
      "name": "OwnableInvalidOwner",
      "type": "error"
    },
    {
      "inputs": [
        {
          "internalType": "address",
          "name": "account",
          "type": "address"
        }
      ],
      "name": "OwnableUnauthorizedAccount",
      "type": "error"
    },
    {
      "inputs": [
        {
          "internalType": "string",
          "name": "str",
          "type": "string"
        }
      ],
      "name": "StringTooLong",
      "type": "error"
    },
    {
      "anonymous": false,
      "inputs": [
        {
          "indexed": true,
          "internalType": "address",
          "name": "account",
          "type": "address"
        },
        {
          "indexed": true,
          "internalType": "address",
          "name": "operator",
          "type": "address"
        },
        {
          "indexed": false,
          "internalType": "bool",
          "name": "approved",
          "type": "bool"
        }
      ],
      "name": "ApprovalForAll",
      "type": "event"
    },
    {
      "anonymous": false,
      "inputs": [],
      "name": "EIP712DomainChanged",
      "type": "event"
    },
    {
      "anonymous": false,
      "inputs": [
        {
          "indexed": true,
          "internalType": "address",
          "name": "to",
          "type": "address"
        },
        {
          "indexed": true,
          "internalType": "uint256",
          "name": "taskId",
          "type": "uint256"
        },
        {
          "indexed": false,
          "internalType": "uint256",
          "name": "amount",
          "type": "uint256"
        },
        {
          "indexed": false,
          "internalType": "string",
          "name": "ipfsUri",
          "type": "string"
        }
      ],
      "name": "ImpactMinted",
      "type": "event"
    },
    {
      "anonymous": false,
      "inputs": [
        {
          "indexed": false,
          "internalType": "address",
          "name": "oldOracle",
          "type": "address"
        },
        {
          "indexed": false,
          "internalType": "address",
          "name": "newOracle",
          "type": "address"
        }
      ],
      "name": "OracleUpdated",
      "type": "event"
    },
    {
      "anonymous": false,
      "inputs": [
        {
          "indexed": true,
          "internalType": "address",
          "name": "previousOwner",
          "type": "address"
        },
        {
          "indexed": true,
          "internalType": "address",
          "name": "newOwner",
          "type": "address"
        }
      ],
      "name": "OwnershipTransferred",
      "type": "event"
    },
    {
      "anonymous": false,
      "inputs": [
        {
          "indexed": true,
          "internalType": "address",
          "name": "operator",
          "type": "address"
        },
        {
          "indexed": true,
          "internalType": "address",
          "name": "from",
          "type": "address"
        },
        {
          "indexed": true,
          "internalType": "address",
          "name": "to",
          "type": "address"
        },
        {
          "indexed": false,
          "internalType": "uint256[]",
          "name": "ids",
          "type": "uint256[]"
        },
        {
          "indexed": false,
          "internalType": "uint256[]",
          "name": "values",
          "type": "uint256[]"
        }
      ],
      "name": "TransferBatch",
      "type": "event"
    },
    {
      "anonymous": false,
      "inputs": [
        {
          "indexed": true,
          "internalType": "address",
          "name": "operator",
          "type": "address"
        },
        {
          "indexed": true,
          "internalType": "address",
          "name": "from",
          "type": "address"
        },
        {
          "indexed": true,
          "internalType": "address",
          "name": "to",
          "type": "address"
        },
        {
          "indexed": false,
          "internalType": "uint256",
          "name": "id",
          "type": "uint256"
        },
        {
          "indexed": false,
          "internalType": "uint256",
          "name": "value",
          "type": "uint256"
        }
      ],
      "name": "TransferSingle",
      "type": "event"
    },
    {
      "anonymous": false,
      "inputs": [
        {
          "indexed": false,
          "internalType": "string",
          "name": "value",
          "type": "string"
        },
        {
          "indexed": true,
          "internalType": "uint256",
          "name": "id",
          "type": "uint256"
        }
      ],
      "name": "URI",
      "type": "event"
    },
    {
      "inputs": [
        {
          "internalType": "address",
          "name": "account",
          "type": "address"
        },
        {
          "internalType": "uint256",
          "name": "id",
          "type": "uint256"
        }
      ],
      "name": "balanceOf",
      "outputs": [
        {
          "internalType": "uint256",
          "name": "",
          "type": "uint256"
        }
      ],
      "stateMutability": "view",
      "type": "function"
    },
    {
      "inputs": [
        {
          "internalType": "address[]",
          "name": "accounts",
          "type": "address[]"
        },
        {
          "internalType": "uint256[]",
          "name": "ids",
          "type": "uint256[]"
        }
      ],
      "name": "balanceOfBatch",
      "outputs": [
        {
          "internalType": "uint256[]",
          "name": "",
          "type": "uint256[]"
        }
      ],
      "stateMutability": "view",
      "type": "function"
    },
    {
      "inputs": [
        {
          "internalType": "address[]",
          "name": "volunteers",
          "type": "address[]"
        },
        {
          "internalType": "uint256[]",
          "name": "taskIds",
          "type": "uint256[]"
        },
        {
          "internalType": "uint256[]",
          "name": "amounts",
          "type": "uint256[]"
        },
        {
          "internalType": "string[]",
          "name": "ipfsUris",
          "type": "string[]"
        },
        {
          "internalType": "bytes[]",
          "name": "signatures",
          "type": "bytes[]"
        }
      ],
      "name": "batchMintImpactTokens",
      "outputs": [],
      "stateMutability": "nonpayable",
      "type": "function"
    },
    {
      "inputs": [],
      "name": "eip712Domain",
      "outputs": [
        {
          "internalType": "bytes1",
          "name": "fields",
          "type": "bytes1"
        },
        {
          "internalType": "string",
          "name": "name",
          "type": "string"
        },
        {
          "internalType": "string",
          "name": "version",
          "type": "string"
        },
        {
          "internalType": "uint256",
          "name": "chainId",
          "type": "uint256"
        },
        {
          "internalType": "address",
          "name": "verifyingContract",
          "type": "address"
        },
        {
          "internalType": "bytes32",
          "name": "salt",
          "type": "bytes32"
        },
        {
          "internalType": "uint256[]",
          "name": "extensions",
          "type": "uint256[]"
        }
      ],
      "stateMutability": "view",
      "type": "function"
    },
    {
      "inputs": [
        {
          "internalType": "address",
          "name": "account",
          "type": "address"
        },
        {
          "internalType": "address",
          "name": "operator",
          "type": "address"
        }
      ],
      "name": "isApprovedForAll",
      "outputs": [
        {
          "internalType": "bool",
          "name": "",
          "type": "bool"
        }
      ],
      "stateMutability": "view",
      "type": "function"
    },
    {
      "inputs": [
        {
          "internalType": "address",
          "name": "volunteer",
          "type": "address"
        },
        {
          "internalType": "uint256",
          "name": "taskId",
          "type": "uint256"
        },
        {
          "internalType": "uint256",
          "name": "amount",
          "type": "uint256"
        },
        {
          "internalType": "string",
          "name": "ipfsUri",
          "type": "string"
        },
        {
          "internalType": "bytes",
          "name": "signature",
          "type": "bytes"
        }
      ],
      "name": "mintImpactToken",
      "outputs": [],
      "stateMutability": "nonpayable",
      "type": "function"
    },
    {
      "inputs": [
        {
          "internalType": "address",
          "name": "",
          "type": "address"
        }
      ],
      "name": "nonces",
      "outputs": [
        {
          "internalType": "uint256",
          "name": "",
          "type": "uint256"
        }
      ],
      "stateMutability": "view",
      "type": "function"
    },
    {
      "inputs": [],
      "name": "oracleAddress",
      "outputs": [
        {
          "internalType": "address",
          "name": "",
          "type": "address"
        }
      ],
      "stateMutability": "view",
      "type": "function"
    },
    {
      "inputs": [],
      "name": "owner",
      "outputs": [
        {
          "internalType": "address",
          "name": "",
          "type": "address"
        }
      ],
      "stateMutability": "view",
      "type": "function"
    },
    {
      "inputs": [],
      "name": "renounceOwnership",
      "outputs": [],
      "stateMutability": "nonpayable",
      "type": "function"
    },
    {
      "inputs": [
        {
          "internalType": "address",
          "name": "from",
          "type": "address"
        },
        {
          "internalType": "address",
          "name": "to",
          "type": "address"
        },
        {
          "internalType": "uint256[]",
          "name": "ids",
          "type": "uint256[]"
        },
        {
          "internalType": "uint256[]",
          "name": "values",
          "type": "uint256[]"
        },
        {
          "internalType": "bytes",
          "name": "data",
          "type": "bytes"
        }
      ],
      "name": "safeBatchTransferFrom",
      "outputs": [],
      "stateMutability": "nonpayable",
      "type": "function"
    },
    {
      "inputs": [
        {
          "internalType": "address",
          "name": "from",
          "type": "address"
        },
        {
          "internalType": "address",
          "name": "to",
          "type": "address"
        },
        {
          "internalType": "uint256",
          "name": "id",
          "type": "uint256"
        },
        {
          "internalType": "uint256",
          "name": "value",
          "type": "uint256"
        },
        {
          "internalType": "bytes",
          "name": "data",
          "type": "bytes"
        }
      ],
      "name": "safeTransferFrom",
      "outputs": [],
      "stateMutability": "nonpayable",
      "type": "function"
    },
    {
      "inputs": [
        {
          "internalType": "address",
          "name": "operator",
          "type": "address"
        },
        {
          "internalType": "bool",
          "name": "approved",
          "type": "bool"
        }
      ],
      "name": "setApprovalForAll",
      "outputs": [],
      "stateMutability": "nonpayable",
      "type": "function"
    },
    {
      "inputs": [
        {
          "internalType": "address",
          "name": "_newOracle",
          "type": "address"
        }
      ],
      "name": "setOracle",
      "outputs": [],
      "stateMutability": "nonpayable",
      "type": "function"
    },
    {
      "inputs": [
        {
          "internalType": "bytes4",
          "name": "interfaceId",
          "type": "bytes4"
        }
      ],
      "name": "supportsInterface",
      "outputs": [
        {
          "internalType": "bool",
          "name": "",
          "type": "bool"
        }
      ],
      "stateMutability": "view",
      "type": "function"
    },
    {
      "inputs": [
        {
          "internalType": "address",
          "name": "newOwner",
          "type": "address"
        }
      ],
      "name": "transferOwnership",
      "outputs": [],
      "stateMutability": "nonpayable",
      "type": "function"
    },
    {
      "inputs": [
        {
          "internalType": "uint256",
          "name": "tokenId",
          "type": "uint256"
        }
      ],
      "name": "uri",
      "outputs": [
        {
          "internalType": "string",
          "name": "",
          "type": "string"
        }
      ],
      "stateMutability": "view",
      "type": "function"
    }
  ],
  "bytecode": "0x61016060405260405180602001604052805f81525060039081620000249190620006c2565b5034801562000031575f80fd5b506040516200465a3803806200465a83398181016040528101906200005791906200080b565b6040518060400160405280600881526020017f556e6974794875620000000000000000000000000000000000000000000000008152506040518060400160405280600181526020017f31000000000000000000000000000000000000000000000000000000000000008152508360405180602001604052805f815250620000e4816200026260201b60201c565b505f73ffffffffffffffffffffffffffffffffffffffff168173ffffffffffffffffffffffffffffffffffffffff160362000158575f6040517f1e4fbdf70000000000000000000000000000000000000000000000000000000081526004016200014f919062000861565b60405180910390fd5b62000169816200027760201b60201c565b50620001806006836200033a60201b90919060201c565b61012081815250506200019e6007826200033a60201b90919060201c565b6101408181525050818051906020012060e08181525050808051906020012061010081815250504660a08181525050620001dd6200038f60201b60201c565b608081815250503073ffffffffffffffffffffffffffffffffffffffff1660c08173ffffffffffffffffffffffffffffffffffffffff168152505050508060085f6101000a81548173ffffffffffffffffffffffffffffffffffffffff021916908373ffffffffffffffffffffffffffffffffffffffff160217905550505062000a4c565b8060029081620002739190620006c2565b5050565b5f60055f9054906101000a900473ffffffffffffffffffffffffffffffffffffffff1690508160055f6101000a81548173ffffffffffffffffffffffffffffffffffffffff021916908373ffffffffffffffffffffffffffffffffffffffff1602179055508173ffffffffffffffffffffffffffffffffffffffff168173ffffffffffffffffffffffffffffffffffffffff167f8be0079c531659141344cd1fd0a4f28419497f9722a3daafe3b4186f6b6457e060405160405180910390a35050565b5f6020835110156200035f576200035783620003eb60201b60201c565b905062000389565b8262000371836200045560201b60201c565b5f019081620003819190620006c2565b5060ff5f1b90505b92915050565b5f7f8b73c3c69bb8fe3d512ecc4cf759cc79239f7b179b0ffacaa9a75d522b39400f60e051610100514630604051602001620003d0959493929190620008a7565b60405160208183030381529060405280519060200120905090565b5f80829050601f815111156200043a57826040517f305a27a90000000000000000000000000000000000000000000000000000000081526004016200043191906200098c565b60405180910390fd5b8051816200044890620009dd565b5f1c175f1b915050919050565b5f819050919050565b5f81519050919050565b7f4e487b71000000000000000000000000000000000000000000000000000000005f52604160045260245ffd5b7f4e487b71000000000000000000000000000000000000000000000000000000005f52602260045260245ffd5b5f6002820490506001821680620004da57607f821691505b602082108103620004f057620004ef62000495565b5b50919050565b5f819050815f5260205f209050919050565b5f6020601f8301049050919050565b5f82821b905092915050565b5f60088302620005547fffffffffffffffffffffffffffffffffffffffffffffffffffffffffffffffff8262000517565b62000560868362000517565b95508019841693508086168417925050509392505050565b5f819050919050565b5f819050919050565b5f620005aa620005a46200059e8462000578565b62000581565b62000578565b9050919050565b5f819050919050565b620005c5836200058a565b620005dd620005d482620005b1565b84845462000523565b825550505050565b5f90565b620005f3620005e5565b62000600818484620005ba565b505050565b5b8181101562000627576200061b5f82620005e9565b60018101905062000606565b5050565b601f82111562000676576200064081620004f6565b6200064b8462000508565b810160208510156200065b578190505b620006736200066a8562000508565b83018262000605565b50505b505050565b5f82821c905092915050565b5f620006985f19846008026200067b565b1980831691505092915050565b5f620006b2838362000687565b9150826002028217905092915050565b620006cd826200045e565b67ffffffffffffffff811115620006e957620006e862000468565b5b620006f58254620004c2565b620007028282856200062b565b5f60209050601f83116001811462000738575f841562000723578287015190505b6200072f8582620006a5565b8655506200079e565b601f1984166200074886620004f6565b5f5b8281101562000771578489015182556001820191506020850194506020810190506200074a565b868310156200079157848901516200078d601f89168262000687565b8355505b6001600288020188555050505b505050505050565b5f80fd5b5f73ffffffffffffffffffffffffffffffffffffffff82169050919050565b5f620007d582620007aa565b9050919050565b620007e781620007c9565b8114620007f2575f80fd5b50565b5f815190506200080581620007dc565b92915050565b5f8060408385031215620008245762000823620007a6565b5b5f6200083385828601620007f5565b92505060206200084685828601620007f5565b9150509250929050565b6200085b81620007c9565b82525050565b5f602082019050620008765f83018462000850565b92915050565b5f819050919050565b62000890816200087c565b82525050565b620008a18162000578565b82525050565b5f60a082019050620008bc5f83018862000885565b620008cb602083018762000885565b620008da604083018662000885565b620008e9606083018562000896565b620008f8608083018462000850565b9695505050505050565b5f82825260208201905092915050565b5f5b838110156200093157808201518184015260208101905062000914565b5f8484015250505050565b5f601f19601f8301169050919050565b5f62000958826200045e565b62000964818562000902565b93506200097681856020860162000912565b62000981816200093c565b840191505092915050565b5f6020820190508181035f830152620009a681846200094c565b905092915050565b5f81519050919050565b5f819050602082019050919050565b5f620009d482516200087c565b80915050919050565b5f620009e982620009ae565b82620009f584620009b8565b905062000a0281620009c7565b9250602082101562000a455762000a407fffffffffffffffffffffffffffffffffffffffffffffffffffffffffffffffff8360200360080262000517565b831692505b5050919050565b60805160a05160c05160e051610100516101205161014051613bbc62000a9e5f395f61106501525f61102a01525f61230801525f6122e701525f611fcb01525f61202101525f61204a0152613bbc5ff3fe608060405234801561000f575f80fd5b5060043610610108575f3560e01c806384b0196e116100a0578063a89ae4ba1161006f578063a89ae4ba146102b8578063e985e9c5146102d6578063f242432a14610306578063f2fde38b14610322578063f9f992011461033e57610108565b806384b0196e1461023e57806384e75437146102625780638da5cb5b1461027e578063a22cb4651461029c57610108565b80634e1273f4116100dc5780634e1273f4146101b8578063715018a6146101e85780637adbf973146101f25780637ecebe001461020e57610108565b8062fdd58e1461010c57806301ffc9a71461013c5780630e89341c1461016c5780632eb2c2d61461019c575b5f80fd5b610126600480360381019061012191906124dd565b61035a565b604051610133919061252a565b60405180910390f35b61015660048036038101906101519190612598565b6103af565b60405161016391906125dd565b60405180910390f35b610186600480360381019061018191906125f6565b610490565b60405161019391906126ab565b60405180910390f35b6101b660048036038101906101b191906128bb565b6104a2565b005b6101d260048036038101906101cd9190612a46565b6104c7565b6040516101df9190612b73565b60405180910390f35b6101f06105ce565b005b61020c60048036038101906102079190612b93565b6105e1565b005b61022860048036038101906102239190612b93565b61068b565b604051610235919061252a565b60405180910390f35b6102466106a0565b6040516102599796959493929190612c1f565b60405180910390f35b61027c60048036038101906102779190612d3f565b610745565b005b6102866107ce565b6040516102939190612dee565b60405180910390f35b6102b660048036038101906102b19190612e31565b6107f6565b005b6102c061080c565b6040516102cd9190612dee565b60405180910390f35b6102f060048036038101906102eb9190612e6f565b610831565b6040516102fd91906125dd565b60405180910390f35b610320600480360381019061031b9190612ead565b6108bf565b005b61033c60048036038101906103379190612b93565b6108e4565b005b61035860048036038101906103539190613098565b610968565b005b5f805f8381526020019081526020015f205f8473ffffffffffffffffffffffffffffffffffffffff1673ffffffffffffffffffffffffffffffffffffffff1681526020019081526020015f2054905092915050565b5f7fd9b67a26000000000000000000000000000000000000000000000000000000007bffffffffffffffffffffffffffffffffffffffffffffffffffffffff1916827bffffffffffffffffffffffffffffffffffffffffffffffffffffffff1916148061047957507f0e89341c000000000000000000000000000000000000000000000000000000007bffffffffffffffffffffffffffffffffffffffffffffffffffffffff1916827bffffffffffffffffffffffffffffffffffffffffffffffffffffffff1916145b80610489575061048882610be1565b5b9050919050565b606061049b82610c4a565b9050919050565b6104b36104ad610d29565b86610d30565b6104c08585858585610dbb565b5050505050565b6060815183511461051357815183516040517f5b05999100000000000000000000000000000000000000000000000000000000815260040161050a9291906131af565b60405180910390fd5b5f835167ffffffffffffffff81111561052f5761052e6126cf565b5b60405190808252806020026020018201604052801561055d5781602001602082028036833780820191505090505b5090505f5b84518110156105c3576105996105818287610eb190919063ffffffff16565b6105948387610ec490919063ffffffff16565b61035a565b8282815181106105ac576105ab6131d6565b5b602002602001018181525050806001019050610562565b508091505092915050565b6105d6610ed7565b6105df5f610f5e565b565b6105e9610ed7565b5f60085f9054906101000a900473ffffffffffffffffffffffffffffffffffffffff1690508160085f6101000a81548173ffffffffffffffffffffffffffffffffffffffff021916908373ffffffffffffffffffffffffffffffffffffffff1602179055507f078c3b417dadf69374a59793b829c52001247130433427049317bde56607b1b7818360405161067f929190613203565b60405180910390a15050565b6009602052805f5260405f205f915090505481565b5f6060805f805f60606106b1611021565b6106b961105c565b46305f801b5f67ffffffffffffffff8111156106d8576106d76126cf565b5b6040519080825280602002602001820160405280156107065781602001602082028036833780820191505090505b507f0f00000000000000000000000000000000000000000000000000000000000000959493929190965096509650965096509650965090919293949596565b6107528585858585611097565b61075c8483611233565b61077685858560405180602001604052805f815250611296565b838573ffffffffffffffffffffffffffffffffffffffff167fa68b7a17827602be6a6469a160d721c622f7c6188fefd38512afe3a5a2a0078885856040516107bf92919061322a565b60405180910390a35050505050565b5f60055f9054906101000a900473ffffffffffffffffffffffffffffffffffffffff16905090565b610808610801610d29565b838361132c565b5050565b60085f9054906101000a900473ffffffffffffffffffffffffffffffffffffffff1681565b5f60015f8473ffffffffffffffffffffffffffffffffffffffff1673ffffffffffffffffffffffffffffffffffffffff1681526020019081526020015f205f8373ffffffffffffffffffffffffffffffffffffffff1673ffffffffffffffffffffffffffffffffffffffff1681526020019081526020015f205f9054906101000a900460ff16905092915050565b6108d06108ca610d29565b86610d30565b6108dd8585858585611505565b5050505050565b6108ec610ed7565b5f73ffffffffffffffffffffffffffffffffffffffff168173ffffffffffffffffffffffffffffffffffffffff160361095c575f6040517f1e4fbdf70000000000000000000000000000000000000000000000000000000081526004016109539190612dee565b60405180910390fd5b61096581610f5e565b50565b878790508a8a9050146109b0576040517f08c379a00000000000000000000000000000000000000000000000000000000081526004016109a7906132a2565b60405180910390fd5b8585905088889050146109f8576040517f08c379a00000000000000000000000000000000000000000000000000000000081526004016109ef906132a2565b60405180910390fd5b818190508686905014610a40576040517f08c379a0000000000000000000000000000000000000000000000000000000008152600401610a37906132a2565b60405180910390fd5b838390508282905014610a88576040517f08c379a0000000000000000000000000000000000000000000000000000000008152600401610a7f906132a2565b60405180910390fd5b5f5b8a8a9050811015610bd457610bc78b8b83818110610aab57610aaa6131d6565b5b9050602002016020810190610ac09190612b93565b8a8a84818110610ad357610ad26131d6565b5b90506020020135898985818110610aed57610aec6131d6565b5b90506020020135888886818110610b0757610b066131d6565b5b9050602002810190610b1991906132cc565b8080601f0160208091040260200160405190810160405280939291908181526020018383808284375f81840152601f19601f82011690508083019250505050505050878787818110610b6e57610b6d6131d6565b5b9050602002810190610b80919061332e565b8080601f0160208091040260200160405190810160405280939291908181526020018383808284375f81840152601f19601f82011690508083019250505050505050610745565b8080600101915050610a8a565b5050505050505050505050565b5f7f01ffc9a7000000000000000000000000000000000000000000000000000000007bffffffffffffffffffffffffffffffffffffffffffffffffffffffff1916827bffffffffffffffffffffffffffffffffffffffffffffffffffffffff1916149050919050565b60605f60045f8481526020019081526020015f208054610c69906133bd565b80601f0160208091040260200160405190810160405280929190818152602001828054610c95906133bd565b8015610ce05780601f10610cb757610100808354040283529160200191610ce0565b820191905f5260205f20905b815481529060010190602001808311610cc357829003601f168201915b505050505090505f815111610cfd57610cf88361160c565b610d21565b600381604051602001610d119291906134b9565b6040516020818303038152906040525b915050919050565b5f33905090565b8173ffffffffffffffffffffffffffffffffffffffff168173ffffffffffffffffffffffffffffffffffffffff1614158015610d735750610d718183610831565b155b15610db75781816040517fe237d922000000000000000000000000000000000000000000000000000000008152600401610dae929190613203565b60405180910390fd5b5050565b5f73ffffffffffffffffffffffffffffffffffffffff168473ffffffffffffffffffffffffffffffffffffffff1603610e2b575f6040517f57f447ce000000000000000000000000000000000000000000000000000000008152600401610e229190612dee565b60405180910390fd5b5f73ffffffffffffffffffffffffffffffffffffffff168573ffffffffffffffffffffffffffffffffffffffff1603610e9b575f6040517f01a83514000000000000000000000000000000000000000000000000000000008152600401610e929190612dee565b60405180910390fd5b610eaa8585858585600161169e565b5050505050565b5f60208202602084010151905092915050565b5f60208202602084010151905092915050565b610edf610d29565b73ffffffffffffffffffffffffffffffffffffffff16610efd6107ce565b73ffffffffffffffffffffffffffffffffffffffff1614610f5c57610f20610d29565b6040517f118cdaa7000000000000000000000000000000000000000000000000000000008152600401610f539190612dee565b60405180910390fd5b565b5f60055f9054906101000a900473ffffffffffffffffffffffffffffffffffffffff1690508160055f6101000a81548173ffffffffffffffffffffffffffffffffffffffff021916908373ffffffffffffffffffffffffffffffffffffffff1602179055508173ffffffffffffffffffffffffffffffffffffffff168173ffffffffffffffffffffffffffffffffffffffff167f8be0079c531659141344cd1fd0a4f28419497f9722a3daafe3b4186f6b6457e060405160405180910390a35050565b606061105760067f000000000000000000000000000000000000000000000000000000000000000061174890919063ffffffff16565b905090565b606061109260077f000000000000000000000000000000000000000000000000000000000000000061174890919063ffffffff16565b905090565b5f7ff7e12d5a2c3caba208701c53931a5cdb884007c8c1e3329e6b0e1da9287cca9186868660095f8b73ffffffffffffffffffffffffffffffffffffffff1673ffffffffffffffffffffffffffffffffffffffff1681526020019081526020015f20548780519060200120604051602001611117969594939291906134dc565b60405160208183030381529060405280519060200120905060095f8773ffffffffffffffffffffffffffffffffffffffff1673ffffffffffffffffffffffffffffffffffffffff1681526020019081526020015f205f81548092919061117c90613568565b91905055505f61118b826117f5565b90505f611198828561180e565b905060085f9054906101000a900473ffffffffffffffffffffffffffffffffffffffff1673ffffffffffffffffffffffffffffffffffffffff168173ffffffffffffffffffffffffffffffffffffffff1614611229576040517f08c379a00000000000000000000000000000000000000000000000000000000081526004016112209061361f565b60405180910390fd5b5050505050505050565b8060045f8481526020019081526020015f20908161125191906137c8565b50817f6bb7ff708619ba0610cba295a58592e0451dee2622938c8755667688daf3529b61127d84610490565b60405161128a91906126ab565b60405180910390a25050565b5f73ffffffffffffffffffffffffffffffffffffffff168473ffffffffffffffffffffffffffffffffffffffff1603611306575f6040517f57f447ce0000000000000000000000000000000000000000000000000000000081526004016112fd9190612dee565b60405180910390fd5b5f806113128585611838565b915091506113245f878484875f61169e565b505050505050565b5f73ffffffffffffffffffffffffffffffffffffffff168373ffffffffffffffffffffffffffffffffffffffff160361139c575f6040517f3e31884e0000000000000000000000000000000000000000000000000000000081526004016113939190612dee565b60405180910390fd5b5f73ffffffffffffffffffffffffffffffffffffffff168273ffffffffffffffffffffffffffffffffffffffff160361140c575f6040517fced3e1000000000000000000000000000000000000000000000000000000000081526004016114039190612dee565b60405180910390fd5b8060015f8573ffffffffffffffffffffffffffffffffffffffff1673ffffffffffffffffffffffffffffffffffffffff1681526020019081526020015f205f8473ffffffffffffffffffffffffffffffffffffffff1673ffffffffffffffffffffffffffffffffffffffff1681526020019081526020015f205f6101000a81548160ff0219169083151502179055508173ffffffffffffffffffffffffffffffffffffffff168373ffffffffffffffffffffffffffffffffffffffff167f17307eab39ab6107e8899845ad3d59bd9653f200f220920489ca2b5937696c31836040516114f891906125dd565b60405180910390a3505050565b5f73ffffffffffffffffffffffffffffffffffffffff168473ffffffffffffffffffffffffffffffffffffffff1603611575575f6040517f57f447ce00000000000000000000000000000000000000000000000000000000815260040161156c9190612dee565b60405180910390fd5b5f73ffffffffffffffffffffffffffffffffffffffff168573ffffffffffffffffffffffffffffffffffffffff16036115e5575f6040517f01a835140000000000000000000000000000000000000000000000000000000081526004016115dc9190612dee565b60405180910390fd5b5f806115f18585611838565b9150915061160387878484875f61169e565b50505050505050565b60606002805461161b906133bd565b80601f0160208091040260200160405190810160405280929190818152602001828054611647906133bd565b80156116925780601f1061166957610100808354040283529160200191611692565b820191905f5260205f20905b81548152906001019060200180831161167557829003601f168201915b50505050509050919050565b6116aa86868686611868565b5f73ffffffffffffffffffffffffffffffffffffffff168573ffffffffffffffffffffffffffffffffffffffff1614611740575f6116e6610d29565b90508115611701576116fc818888888888611bf8565b61173e565b5f6117155f87610ec490919063ffffffff16565b90505f61172b5f87610ec490919063ffffffff16565b905061173b838a8a85858a611da7565b50505b505b505050505050565b606060ff5f1b83146117645761175d83611f56565b90506117ef565b818054611770906133bd565b80601f016020809104026020016040519081016040528092919081815260200182805461179c906133bd565b80156117e75780601f106117be576101008083540402835291602001916117e7565b820191905f5260205f20905b8154815290600101906020018083116117ca57829003601f168201915b505050505090505b92915050565b5f611807611801611fc8565b8361207e565b9050919050565b5f805f8061181c86866120be565b92509250925061182c8282612113565b82935050505092915050565b60608060405191506001825283602083015260408201905060018152826020820152604081016040529250929050565b80518251146118b257815181516040517f5b0599910000000000000000000000000000000000000000000000000000000081526004016118a99291906131af565b60405180910390fd5b5f6118bb610d29565b90505f5b8351811015611ab7575f6118dc8286610ec490919063ffffffff16565b90505f6118f28386610ec490919063ffffffff16565b90505f73ffffffffffffffffffffffffffffffffffffffff168873ffffffffffffffffffffffffffffffffffffffff1614611a15575f805f8481526020019081526020015f205f8a73ffffffffffffffffffffffffffffffffffffffff1673ffffffffffffffffffffffffffffffffffffffff1681526020019081526020015f20549050818110156119c157888183856040517f03dee4c50000000000000000000000000000000000000000000000000000000081526004016119b89493929190613897565b60405180910390fd5b8181035f808581526020019081526020015f205f8b73ffffffffffffffffffffffffffffffffffffffff1673ffffffffffffffffffffffffffffffffffffffff1681526020019081526020015f2081905550505b5f73ffffffffffffffffffffffffffffffffffffffff168773ffffffffffffffffffffffffffffffffffffffff1614611aaa57805f808481526020019081526020015f205f8973ffffffffffffffffffffffffffffffffffffffff1673ffffffffffffffffffffffffffffffffffffffff1681526020019081526020015f205f828254611aa291906138da565b925050819055505b50508060010190506118bf565b506001835103611b72575f611ad55f85610ec490919063ffffffff16565b90505f611aeb5f85610ec490919063ffffffff16565b90508573ffffffffffffffffffffffffffffffffffffffff168773ffffffffffffffffffffffffffffffffffffffff168473ffffffffffffffffffffffffffffffffffffffff167fc3d58168c5ae7397731d063d5bbf3d657854427343f4c083240f7aacaa2d0f628585604051611b639291906131af565b60405180910390a45050611bf1565b8373ffffffffffffffffffffffffffffffffffffffff168573ffffffffffffffffffffffffffffffffffffffff168273ffffffffffffffffffffffffffffffffffffffff167f4a39dc06d4c0dbc64b70af90fd698a233a518aa5d07e595d983b8c0526c8f7fb8686604051611be892919061390d565b60405180910390a45b5050505050565b5f8473ffffffffffffffffffffffffffffffffffffffff163b1115611d9f578373ffffffffffffffffffffffffffffffffffffffff1663bc197c8187878686866040518663ffffffff1660e01b8152600401611c58959493929190613994565b6020604051808303815f875af1925050508015611c9357506040513d601f19601f82011682018060405250810190611c909190613a0e565b60015b611d14573d805f8114611cc1576040519150601f19603f3d011682016040523d82523d5f602084013e611cc6565b606091505b505f815103611d0c57846040517f57f447ce000000000000000000000000000000000000000000000000000000008152600401611d039190612dee565b60405180910390fd5b805160208201fd5b63bc197c8160e01b7bffffffffffffffffffffffffffffffffffffffffffffffffffffffff1916817bffffffffffffffffffffffffffffffffffffffffffffffffffffffff191614611d9d57846040517f57f447ce000000000000000000000000000000000000000000000000000000008152600401611d949190612dee565b60405180910390fd5b505b505050505050565b5f8473ffffffffffffffffffffffffffffffffffffffff163b1115611f4e578373ffffffffffffffffffffffffffffffffffffffff1663f23a6e6187878686866040518663ffffffff1660e01b8152600401611e07959493929190613a39565b6020604051808303815f875af1925050508015611e4257506040513d601f19601f82011682018060405250810190611e3f9190613a0e565b60015b611ec3573d805f8114611e70576040519150601f19603f3d011682016040523d82523d5f602084013e611e75565b606091505b505f815103611ebb57846040517f57f447ce000000000000000000000000000000000000000000000000000000008152600401611eb29190612dee565b60405180910390fd5b805160208201fd5b63f23a6e6160e01b7bffffffffffffffffffffffffffffffffffffffffffffffffffffffff1916817bffffffffffffffffffffffffffffffffffffffffffffffffffffffff191614611f4c57846040517f57f447ce000000000000000000000000000000000000000000000000000000008152600401611f439190612dee565b60405180910390fd5b505b505050505050565b60605f611f6283612275565b90505f602067ffffffffffffffff811115611f8057611f7f6126cf565b5b6040519080825280601f01601f191660200182016040528015611fb25781602001600182028036833780820191505090505b5090508181528360208201528092505050919050565b5f7f000000000000000000000000000000000000000000000000000000000000000073ffffffffffffffffffffffffffffffffffffffff163073ffffffffffffffffffffffffffffffffffffffff1614801561204357507f000000000000000000000000000000000000000000000000000000000000000046145b15612070577f0000000000000000000000000000000000000000000000000000000000000000905061207b565b6120786122c3565b90505b90565b5f6040517f190100000000000000000000000000000000000000000000000000000000000081528360028201528260228201526042812091505092915050565b5f805f60418451036120fe575f805f602087015192506040870151915060608701515f1a90506120f088828585612358565b95509550955050505061210c565b5f600285515f1b9250925092505b9250925092565b5f600381111561212657612125613a91565b5b82600381111561213957612138613a91565b5b0315612271576001600381111561215357612152613a91565b5b82600381111561216657612165613a91565b5b0361219d576040517ff645eedf00000000000000000000000000000000000000000000000000000000815260040160405180910390fd5b600260038111156121b1576121b0613a91565b5b8260038111156121c4576121c3613a91565b5b0361220857805f1c6040517ffce698f70000000000000000000000000000000000000000000000000000000081526004016121ff919061252a565b60405180910390fd5b60038081111561221b5761221a613a91565b5b82600381111561222e5761222d613a91565b5b0361227057806040517fd78bce0c0000000000000000000000000000000000000000000000000000000081526004016122679190613abe565b60405180910390fd5b5b5050565b5f8060ff835f1c169050601f8111156122ba576040517fb3512b0c00000000000000000000000000000000000000000000000000000000815260040160405180910390fd5b80915050919050565b5f7f8b73c3c69bb8fe3d512ecc4cf759cc79239f7b179b0ffacaa9a75d522b39400f7f00000000000000000000000000000000000000000000000000000000000000007f0000000000000000000000000000000000000000000000000000000000000000463060405160200161233d959493929190613ad7565b60405160208183030381529060405280519060200120905090565b5f805f7f7fffffffffffffffffffffffffffffff5d576e7357a4501ddfe92f46681b20a0845f1c1115612394575f600385925092509250612435565b5f6001888888886040515f81526020016040526040516123b79493929190613b43565b6020604051602081039080840390855afa1580156123d7573d5f803e3d5ffd5b5050506020604051035190505f73ffffffffffffffffffffffffffffffffffffffff168173ffffffffffffffffffffffffffffffffffffffff1603612428575f60015f801b93509350935050612435565b805f805f1b935093509350505b9450945094915050565b5f604051905090565b5f80fd5b5f80fd5b5f73ffffffffffffffffffffffffffffffffffffffff82169050919050565b5f61247982612450565b9050919050565b6124898161246f565b8114612493575f80fd5b50565b5f813590506124a481612480565b92915050565b5f819050919050565b6124bc816124aa565b81146124c6575f80fd5b50565b5f813590506124d7816124b3565b92915050565b5f80604083850312156124f3576124f2612448565b5b5f61250085828601612496565b9250506020612511858286016124c9565b9150509250929050565b612524816124aa565b82525050565b5f60208201905061253d5f83018461251b565b92915050565b5f7fffffffff0000000000000000000000000000000000000000000000000000000082169050919050565b61257781612543565b8114612581575f80fd5b50565b5f813590506125928161256e565b92915050565b5f602082840312156125ad576125ac612448565b5b5f6125ba84828501612584565b91505092915050565b5f8115159050919050565b6125d7816125c3565b82525050565b5f6020820190506125f05f8301846125ce565b92915050565b5f6020828403121561260b5761260a612448565b5b5f612618848285016124c9565b91505092915050565b5f81519050919050565b5f82825260208201905092915050565b5f5b8381101561265857808201518184015260208101905061263d565b5f8484015250505050565b5f601f19601f8301169050919050565b5f61267d82612621565b612687818561262b565b935061269781856020860161263b565b6126a081612663565b840191505092915050565b5f6020820190508181035f8301526126c38184612673565b905092915050565b5f80fd5b7f4e487b71000000000000000000000000000000000000000000000000000000005f52604160045260245ffd5b61270582612663565b810181811067ffffffffffffffff82111715612724576127236126cf565b5b80604052505050565b5f61273661243f565b905061274282826126fc565b919050565b5f67ffffffffffffffff821115612761576127606126cf565b5b602082029050602081019050919050565b5f80fd5b5f61278861278384612747565b61272d565b905080838252602082019050602084028301858111156127ab576127aa612772565b5b835b818110156127d457806127c088826124c9565b8452602084019350506020810190506127ad565b5050509392505050565b5f82601f8301126127f2576127f16126cb565b5b8135612802848260208601612776565b91505092915050565b5f80fd5b5f67ffffffffffffffff821115612829576128286126cf565b5b61283282612663565b9050602081019050919050565b828183375f83830152505050565b5f61285f61285a8461280f565b61272d565b90508281526020810184848401111561287b5761287a61280b565b5b61288684828561283f565b509392505050565b5f82601f8301126128a2576128a16126cb565b5b81356128b284826020860161284d565b91505092915050565b5f805f805f60a086880312156128d4576128d3612448565b5b5f6128e188828901612496565b95505060206128f288828901612496565b945050604086013567ffffffffffffffff8111156129135761291261244c565b5b61291f888289016127de565b935050606086013567ffffffffffffffff8111156129405761293f61244c565b5b61294c888289016127de565b925050608086013567ffffffffffffffff81111561296d5761296c61244c565b5b6129798882890161288e565b9150509295509295909350565b5f67ffffffffffffffff8211156129a05761299f6126cf565b5b602082029050602081019050919050565b5f6129c36129be84612986565b61272d565b905080838252602082019050602084028301858111156129e6576129e5612772565b5b835b81811015612a0f57806129fb8882612496565b8452602084019350506020810190506129e8565b5050509392505050565b5f82601f830112612a2d57612a2c6126cb565b5b8135612a3d8482602086016129b1565b91505092915050565b5f8060408385031215612a5c57612a5b612448565b5b5f83013567ffffffffffffffff811115612a7957612a7861244c565b5b612a8585828601612a19565b925050602083013567ffffffffffffffff811115612aa657612aa561244c565b5b612ab2858286016127de565b9150509250929050565b5f81519050919050565b5f82825260208201905092915050565b5f819050602082019050919050565b612aee816124aa565b82525050565b5f612aff8383612ae5565b60208301905092915050565b5f602082019050919050565b5f612b2182612abc565b612b2b8185612ac6565b9350612b3683612ad6565b805f5b83811015612b66578151612b4d8882612af4565b9750612b5883612b0b565b925050600181019050612b39565b5085935050505092915050565b5f6020820190508181035f830152612b8b8184612b17565b905092915050565b5f60208284031215612ba857612ba7612448565b5b5f612bb584828501612496565b91505092915050565b5f7fff0000000000000000000000000000000000000000000000000000000000000082169050919050565b612bf281612bbe565b82525050565b612c018161246f565b82525050565b5f819050919050565b612c1981612c07565b82525050565b5f60e082019050612c325f83018a612be9565b8181036020830152612c448189612673565b90508181036040830152612c588188612673565b9050612c67606083018761251b565b612c746080830186612bf8565b612c8160a0830185612c10565b81810360c0830152612c938184612b17565b905098975050505050505050565b5f67ffffffffffffffff821115612cbb57612cba6126cf565b5b612cc482612663565b9050602081019050919050565b5f612ce3612cde84612ca1565b61272d565b905082815260208101848484011115612cff57612cfe61280b565b5b612d0a84828561283f565b509392505050565b5f82601f830112612d2657612d256126cb565b5b8135612d36848260208601612cd1565b91505092915050565b5f805f805f60a08688031215612d5857612d57612448565b5b5f612d6588828901612496565b9550506020612d76888289016124c9565b9450506040612d87888289016124c9565b935050606086013567ffffffffffffffff811115612da857612da761244c565b5b612db488828901612d12565b925050608086013567ffffffffffffffff811115612dd557612dd461244c565b5b612de18882890161288e565b9150509295509295909350565b5f602082019050612e015f830184612bf8565b92915050565b612e10816125c3565b8114612e1a575f80fd5b50565b5f81359050612e2b81612e07565b92915050565b5f8060408385031215612e4757612e46612448565b5b5f612e5485828601612496565b9250506020612e6585828601612e1d565b9150509250929050565b5f8060408385031215612e8557612e84612448565b5b5f612e9285828601612496565b9250506020612ea385828601612496565b9150509250929050565b5f805f805f60a08688031215612ec657612ec5612448565b5b5f612ed388828901612496565b9550506020612ee488828901612496565b9450506040612ef5888289016124c9565b9350506060612f06888289016124c9565b925050608086013567ffffffffffffffff811115612f2757612f2661244c565b5b612f338882890161288e565b9150509295509295909350565b5f80fd5b5f8083601f840112612f5957612f586126cb565b5b8235905067ffffffffffffffff811115612f7657612f75612f40565b5b602083019150836020820283011115612f9257612f91612772565b5b9250929050565b5f8083601f840112612fae57612fad6126cb565b5b8235905067ffffffffffffffff811115612fcb57612fca612f40565b5b602083019150836020820283011115612fe757612fe6612772565b5b9250929050565b5f8083601f840112613003576130026126cb565b5b8235905067ffffffffffffffff8111156130205761301f612f40565b5b60208301915083602082028301111561303c5761303b612772565b5b9250929050565b5f8083601f840112613058576130576126cb565b5b8235905067ffffffffffffffff81111561307557613074612f40565b5b60208301915083602082028301111561309157613090612772565b5b9250929050565b5f805f805f805f805f8060a08b8d0312156130b6576130b5612448565b5b5f8b013567ffffffffffffffff8111156130d3576130d261244c565b5b6130df8d828e01612f44565b9a509a505060208b013567ffffffffffffffff8111156131025761310161244c565b5b61310e8d828e01612f99565b985098505060408b013567ffffffffffffffff8111156131315761313061244c565b5b61313d8d828e01612f99565b965096505060608b013567ffffffffffffffff8111156131605761315f61244c565b5b61316c8d828e01612fee565b945094505060808b013567ffffffffffffffff81111561318f5761318e61244c565b5b61319b8d828e01613043565b92509250509295989b9194979a5092959850565b5f6040820190506131c25f83018561251b565b6131cf602083018461251b565b9392505050565b7f4e487b71000000000000000000000000000000000000000000000000000000005f52603260045260245ffd5b5f6040820190506132165f830185612bf8565b6132236020830184612bf8565b9392505050565b5f60408201905061323d5f83018561251b565b818103602083015261324f8184612673565b90509392505050565b7f4172726179206c656e677468206d69736d6174636800000000000000000000005f82015250565b5f61328c60158361262b565b915061329782613258565b602082019050919050565b5f6020820190508181035f8301526132b981613280565b9050919050565b5f80fd5b5f80fd5b5f80fd5b5f80833560016020038436030381126132e8576132e76132c0565b5b80840192508235915067ffffffffffffffff82111561330a576133096132c4565b5b602083019250600182023603831315613326576133256132c8565b5b509250929050565b5f808335600160200384360303811261334a576133496132c0565b5b80840192508235915067ffffffffffffffff82111561336c5761336b6132c4565b5b602083019250600182023603831315613388576133876132c8565b5b509250929050565b7f4e487b71000000000000000000000000000000000000000000000000000000005f52602260045260245ffd5b5f60028204905060018216806133d457607f821691505b6020821081036133e7576133e6613390565b5b50919050565b5f81905092915050565b5f819050815f5260205f209050919050565b5f8154613415816133bd565b61341f81866133ed565b9450600182165f8114613439576001811461344e57613480565b60ff1983168652811515820286019350613480565b613457856133f7565b5f5b8381101561347857815481890152600182019150602081019050613459565b838801955050505b50505092915050565b5f61349382612621565b61349d81856133ed565b93506134ad81856020860161263b565b80840191505092915050565b5f6134c48285613409565b91506134d08284613489565b91508190509392505050565b5f60c0820190506134ef5f830189612c10565b6134fc6020830188612bf8565b613509604083018761251b565b613516606083018661251b565b613523608083018561251b565b61353060a0830184612c10565b979650505050505050565b7f4e487b71000000000000000000000000000000000000000000000000000000005f52601160045260245ffd5b5f613572826124aa565b91507fffffffffffffffffffffffffffffffffffffffffffffffffffffffffffffffff82036135a4576135a361353b565b5b600182019050919050565b7f556e697479496d706163743a20496e76616c6964206f7261636c65207369676e5f8201527f6174757265000000000000000000000000000000000000000000000000000000602082015250565b5f61360960258361262b565b9150613614826135af565b604082019050919050565b5f6020820190508181035f830152613636816135fd565b9050919050565b5f6020601f8301049050919050565b5f82821b905092915050565b5f600883026136877fffffffffffffffffffffffffffffffffffffffffffffffffffffffffffffffff8261364c565b613691868361364c565b95508019841693508086168417925050509392505050565b5f819050919050565b5f6136cc6136c76136c2846124aa565b6136a9565b6124aa565b9050919050565b5f819050919050565b6136e5836136b2565b6136f96136f1826136d3565b848454613658565b825550505050565b5f90565b61370d613701565b6137188184846136dc565b505050565b5b8181101561373b576137305f82613705565b60018101905061371e565b5050565b601f82111561378057613751816133f7565b61375a8461363d565b81016020851015613769578190505b61377d6137758561363d565b83018261371d565b50505b505050565b5f82821c905092915050565b5f6137a05f1984600802613785565b1980831691505092915050565b5f6137b88383613791565b9150826002028217905092915050565b6137d182612621565b67ffffffffffffffff8111156137ea576137e96126cf565b5b6137f482546133bd565b6137ff82828561373f565b5f60209050601f831160018114613830575f841561381e578287015190505b61382885826137ad565b86555061388f565b601f19841661383e866133f7565b5f5b8281101561386557848901518255600182019150602085019450602081019050613840565b86831015613882578489015161387e601f891682613791565b8355505b6001600288020188555050505b505050505050565b5f6080820190506138aa5f830187612bf8565b6138b7602083018661251b565b6138c4604083018561251b565b6138d1606083018461251b565b95945050505050565b5f6138e4826124aa565b91506138ef836124aa565b92508282019050808211156139075761390661353b565b5b92915050565b5f6040820190508181035f8301526139258185612b17565b905081810360208301526139398184612b17565b90509392505050565b5f81519050919050565b5f82825260208201905092915050565b5f61396682613942565b613970818561394c565b935061398081856020860161263b565b61398981612663565b840191505092915050565b5f60a0820190506139a75f830188612bf8565b6139b46020830187612bf8565b81810360408301526139c68186612b17565b905081810360608301526139da8185612b17565b905081810360808301526139ee818461395c565b90509695505050505050565b5f81519050613a088161256e565b92915050565b5f60208284031215613a2357613a22612448565b5b5f613a30848285016139fa565b91505092915050565b5f60a082019050613a4c5f830188612bf8565b613a596020830187612bf8565b613a66604083018661251b565b613a73606083018561251b565b8181036080830152613a85818461395c565b90509695505050505050565b7f4e487b71000000000000000000000000000000000000000000000000000000005f52602160045260245ffd5b5f602082019050613ad15f830184612c10565b92915050565b5f60a082019050613aea5f830188612c10565b613af76020830187612c10565b613b046040830186612c10565b613b11606083018561251b565b613b1e6080830184612bf8565b9695505050505050565b5f60ff82169050919050565b613b3d81613b28565b82525050565b5f608082019050613b565f830187612c10565b613b636020830186613b34565b613b706040830185612c10565b613b7d6060830184612c10565b9594505050505056fea26469706673582212200efa0146d8cf24be867b1348e5b80ab7393510209d20b9e45475e3cd7a72c55364736f6c63430008180033",
  "linkReferences": {},
  "deployedLinkReferences": {}
}