{
  "_format": "hh-sol-artifact-1",
  "contractName": "UnityImpact",
  "sourceName": "contracts/UnityImpact.sol",
  "abi": [
    {
      "inputs": [
        {
          "internalType": "address",
          "name": "initialOwner",
          "type": "address"
        },
        {
          "internalType": "address",
          "name": "_oracleAddress",
          "type": "address"
        }
      ],
      "stateMutability": "nonpayable",
      "type": "constructor"
    },
    {
      "inputs": [],
      "name": "ECDSAInvalidSignature",
      "type": "error"
    },
    {
      "inputs": [
        {
          "internalType": "uint256",
          "name": "length",
          "type": "uint256"
        }
      ],
      "name": "ECDSAInvalidSignatureLength",
      "type": "error"
    },
    {
      "inputs": [
        {
          "internalType": "bytes32",
          "name": "s",
          "type": "bytes32"
        }
      ],
      "name": "ECDSAInvalidSignatureS",
      "type": "error"
    },
    {
      "inputs": [
        {
          "internalType": "address",
          "name": "sender",
          "type": "address"
        },
        {
          "internalType": "uint256",
          "name": "balance",
          "type": "uint256"
        },
        {
          "internalType": "uint256",
          "name": "needed",
          "type": "uint256"
        },
        {
          "internalType": "uint256",
          "name": "tokenId",
          "type": "uint256"
        }
      ],
      "name": "ERC1155InsufficientBalance",
      "type": "error"
    },
    {
      "inputs": [
        {
          "internalType": "address",
          "name": "approver",
          "type": "address"
        }
      ],
      "name": "ERC1155InvalidApprover",
      "type": "error"
    },
    {
      "inputs": [
        {
          "internalType": "uint256",
          "name": "idsLength",
          "type": "uint256"
        },
        {
          "internalType": "uint256",
          "name": "valuesLength",
          "type": "uint256"
        }
      ],
      "name": "ERC1155InvalidArrayLength",
      "type": "error"
    },
    {
      "inputs": [
        {
          "internalType": "address",
          "name": "operator",
          "type": "address"
        }
      ],
      "name": "ERC1155InvalidOperator",
      "type": "error"
    },
    {
      "inputs": [
        {
          "internalType": "address",
          "name": "receiver",
          "type": "address"
        }
      ],
      "name": "ERC1155InvalidReceiver",
      "type": "error"
    },
    {
      "inputs": [
        {
          "internalType": "address",
          "name": "sender",
          "type": "address"
        }
      ],
      "name": "ERC1155InvalidSender",
      "type": "error"
    },
    {
      "inputs": [
        {
          "internalType": "address",
          "name": "operator",
          "type": "address"
        },
        {
          "internalType": "address",
          "name": "owner",
          "type": "address"
        }
      ],
      "name": "ERC1155MissingApprovalForAll",
      "type": "error"
    },
    {
      "inputs": [],
      "name": "InvalidShortString",
      "type": "error"
    },
    {
      "inputs": [
        {
          "internalType": "address",
          "name": "owner",
          "type": "address"
        }
      ],
      "name": "OwnableInvalidOwner",
      "type": "error"
    },
    {
      "inputs": [
        {
          "internalType": "address",
          "name": "account",
          "type": "address"
        }
      ],
      "name": "OwnableUnauthorizedAccount",
      "type": "error"
    },
    {
      "inputs": [
        {
          "internalType": "string",
          "name": "str",
          "type": "string"
        }
      ],
      "name": "StringTooLong",
      "type": "error"
    },
    {
      "anonymous": false,
      "inputs": [
        {
          "indexed": true,
          "internalType": "address",
          "name": "account",
          "type": "address"
        },
        {
          "indexed": true,
          "internalType": "address",
          "name": "operator",
          "type": "address"
        },
        {
          "indexed": false,
          "internalType": "bool",
          "name": "approved",
          "type": "bool"
        }
      ],
      "name": "ApprovalForAll",
      "type": "event"
    },
    {
      "anonymous": false,
      "inputs": [],
      "name": "EIP712DomainChanged",
      "type": "event"
    },
    {
      "anonymous": false,
      "inputs": [
        {
          "indexed": true,
          "internalType": "address",
          "name": "to",
          "type": "address"
        },
        {
          "indexed": true,
          "internalType": "uint256",
          "name": "taskId",
          "type": "uint256"
        },
        {
          "indexed": false,
          "internalType": "uint256",
          "name": "amount",
          "type": "uint256"
        },
        {
          "indexed": false,
          "internalType": "string",
          "name": "ipfsUri",
          "type": "string"
        }
      ],
      "name": "ImpactMinted",
      "type": "event"
    },
    {
      "anonymous": false,
      "inputs": [
        {
          "indexed": false,
          "internalType": "address",
          "name": "oldOracle",
          "type": "address"
        },
        {
          "indexed": false,
          "internalType": "address",
          "name": "newOracle",
          "type": "address"
        }
      ],
      "name": "OracleUpdated",
      "type": "event"
    },
    {
      "anonymous": false,
      "inputs": [
        {
          "indexed": true,
          "internalType": "address",
          "name": "previousOwner",
          "type": "address"
        },
        {
          "indexed": true,
          "internalType": "address",
          "name": "newOwner",
          "type": "address"
        }
      ],
      "name": "OwnershipTransferred",
      "type": "event"
    },
    {
      "anonymous": false,
      "inputs": [
        {
          "indexed": true,
          "internalType": "address",
          "name": "operator",
          "type": "address"
        },
        {
          "indexed": true,
          "internalType": "address",
          "name": "from",
          "type": "address"
        },
        {
          "indexed": true,
          "internalType": "address",
          "name": "to",
          "type": "address"
        },
        {
          "indexed": false,
          "internalType": "uint256[]",
          "name": "ids",
          "type": "uint256[]"
        },
        {
          "indexed": false,
          "internalType": "uint256[]",
          "name": "values",
          "type": "uint256[]"
        }
      ],
      "name": "TransferBatch",
      "type": "event"
    },
    {
      "anonymous": false,
      "inputs": [
        {
          "indexed": true,
          "internalType": "address",
          "name": "operator",
          "type": "address"
        },
        {
          "indexed": true,
          "internalType": "address",
          "name": "from",
          "type": "address"
        },
        {
          "indexed": true,
          "internalType": "address",
          "name": "to",
          "type": "address"
        },
        {
          "indexed": false,
          "internalType": "uint256",
          "name": "id",
          "type": "uint256"
        },
        {
          "indexed": false,
          "internalType": "uint256",
          "name": "value",
          "type": "uint256"
        }
      ],
      "name": "TransferSingle",
      "type": "event"
    },
    {
      "anonymous": false,
      "inputs": [
        {
          "indexed": false,
          "internalType": "string",
          "name": "value",
          "type": "string"
        },
        {
          "indexed": true,
          "internalType": "uint256",
          "name": "id",
          "type": "uint256"
        }
      ],
      "name": "URI",
      "type": "event"
    },
    {
      "inputs": [
        {
          "internalType": "address",
          "name": "account",
          "type": "address"
        },
        {
          "internalType": "uint256",
          "name": "id",
          "type": "uint256"
        }
      ],
      "name": "balanceOf",
      "outputs": [
        {
          "internalType": "uint256",
          "name": "",
          "type": "uint256"
        }
      ],
      "stateMutability": "view",
      "type": "function"
    },
    {
      "inputs": [
        {
          "internalType": "address[]",
          "name": "accounts",
          "type": "address[]"
        },
        {
          "internalType": "uint256[]",
          "name": "ids",
          "type": "uint256[]"
        }
      ],
      "name": "balanceOfBatch",
      "outputs": [
        {
          "internalType": "uint256[]",
          "name": "",
          "type": "uint256[]"
        }
      ],
      "stateMutability": "view",
      "type": "function"
    },
    {
      "inputs": [
        {
          "internalType": "address[]",
          "name": "volunteers",
          "type": "address[]"
        },
        {
          "internalType": "uint256[]",
          "name": "taskIds",
          "type": "uint256[]"
        },
        {
          "internalType": "uint256[]",
          "name": "amounts",
          "type": "uint256[]"
        },
        {
          "internalType": "string[]",
          "name": "ipfsUris",
          "type": "string[]"
        },
        {
          "internalType": "bytes[]",
          "name": "signatures",
          "type": "bytes[]"
        }
      ],
      "name": "batchMintImpactTokens",
      "outputs": [],
      "stateMutability": "nonpayable",
      "type": "function"
    },
    {
      "inputs": [],
      "name": "eip712Domain",
      "outputs": [
        {
          "internalType": "bytes1",
          "name": "fields",
          "type": "bytes1"
        },
        {
          "internalType": "string",
          "name": "name",
          "type": "string"
        },
        {
          "internalType": "string",
          "name": "version",
          "type": "string"
        },
        {
          "internalType": "uint256",
          "name": "chainId",
          "type": "uint256"
        },
        {
          "internalType": "address",
          "name": "verifyingContract",
          "type": "address"
        },
        {
          "internalType": "bytes32",
          "name": "salt",
          "type": "bytes32"
        },
        {
          "internalType": "uint256[]",
          "name": "extensions",
          "type": "uint256[]"
        }
      ],
      "stateMutability": "view",
      "type": "function"
    },
    {
      "inputs": [
        {
          "internalType": "address",
          "name": "account",
          "type": "address"
        },
        {
          "internalType": "address",
          "name": "operator",
          "type": "address"
        }
      ],
      "name": "isApprovedForAll",
      "outputs": [
        {
          "internalType": "bool",
          "name": "",
          "type": "bool"
        }
      ],
      "stateMutability": "view",
      "type": "function"
    },
    {
      "inputs": [
        {
          "internalType": "address",
          "name": "volunteer",
          "type": "address"
        },
        {
          "internalType": "uint256",
          "name": "taskId",
          "type": "uint256"
        },
        {
          "internalType": "uint256",
          "name": "amount",
          "type": "uint256"
        },
        {
          "internalType": "string",
          "name": "ipfsUri",
          "type": "string"
        },
        {
          "internalType": "bytes",
          "name": "signature",
          "type": "bytes"
        }
      ],
      "name": "mintImpactToken",
      "outputs": [],
      "stateMutability": "nonpayable",
      "type": "function"
    },
    {
      "inputs": [],
      "name": "oracleAddress",
      "outputs": [
        {
          "internalType": "address",
          "name": "",
          "type": "address"
        }
      ],
      "stateMutability": "view",
      "type": "function"
    },
    {
      "inputs": [],
      "name": "owner",
      "outputs": [
        {
          "internalType": "address",
          "name": "",
          "type": "address"
        }
      ],
      "stateMutability": "view",
      "type": "function"
    },
    {
      "inputs": [],
      "name": "renounceOwnership",
      "outputs": [],
      "stateMutability": "nonpayable",
      "type": "function"
    },
    {
      "inputs": [
        {
          "internalType": "address",
          "name": "from",
          "type": "address"
        },
        {
          "internalType": "address",
          "name": "to",
          "type": "address"
        },
        {
          "internalType": "uint256[]",
          "name": "ids",
          "type": "uint256[]"
        },
        {
          "internalType": "uint256[]",
          "name": "values",
          "type": "uint256[]"
        },
        {
          "internalType": "bytes",
          "name": "data",
          "type": "bytes"
        }
      ],
      "name": "safeBatchTransferFrom",
      "outputs": [],
      "stateMutability": "nonpayable",
      "type": "function"
    },
    {
      "inputs": [
        {
          "internalType": "address",
          "name": "from",
          "type": "address"
        },
        {
          "internalType": "address",
          "name": "to",
          "type": "address"
        },
        {
          "internalType": "uint256",
          "name": "id",
          "type": "uint256"
        },
        {
          "internalType": "uint256",
          "name": "value",
          "type": "uint256"
        },
        {
          "internalType": "bytes",
          "name": "data",
          "type": "bytes"
        }
      ],
      "name": "safeTransferFrom",
      "outputs": [],
      "stateMutability": "nonpayable",
      "type": "function"
    },
    {
      "inputs": [
        {
          "internalType": "address",
          "name": "operator",
          "type": "address"
        },
        {
          "internalType": "bool",
          "name": "approved",
          "type": "bool"
        }
      ],
      "name": "setApprovalForAll",
      "outputs": [],
      "stateMutability": "nonpayable",
      "type": "function"
    },
    {
      "inputs": [
        {
          "internalType": "address",
          "name": "_newOracle",
          "type": "address"
        }
      ],
      "name": "setOracle",
      "outputs": [],
      "stateMutability": "nonpayable",
      "type": "function"
    },
    {
      "inputs": [
        {
          "internalType": "bytes4",
          "name": "interfaceId",
          "type": "bytes4"
        }
      ],
      "name": "supportsInterface",
      "outputs": [
        {
          "internalType": "bool",
          "name": "",
          "type": "bool"
        }
      ],
      "stateMutability": "view",
      "type": "function"
    },
    {
      "inputs": [
        {
          "internalType": "address",
          "name": "newOwner",
          "type": "address"
        }
      ],
      "name": "transferOwnership",
      "outputs": [],
      "stateMutability": "nonpayable",
      "type": "function"
    },
    {
      "inputs": [
        {
          "internalType": "uint256",
          "name": "tokenId",
          "type": "uint256"
        }
      ],
      "name": "uri",
      "outputs": [
        {
          "internalType": "string",
          "name": "",
          "type": "string"
        }
      ],
      "stateMutability": "view",
      "type": "function"
    },
    {
      "inputs": [
        {
          "internalType": "bytes",
          "name": "",
          "type": "bytes"
        }
      ],
      "name": "usedSignatures",
      "outputs": [
        {
          "internalType": "bool",
          "name": "",
          "type": "bool"
        }
      ],
      "stateMutability": "view",
      "type": "function"
    }
  ],
  "bytecode": "0x61016060405260405180602001604052805f81525060039081620000249190620006c2565b5034801562000031575f80fd5b506040516200475a3803806200475a83398181016040528101906200005791906200080b565b6040518060400160405280600881526020017f556e6974794875620000000000000000000000000000000000000000000000008152506040518060400160405280600181526020017f31000000000000000000000000000000000000000000000000000000000000008152508360405180602001604052805f815250620000e4816200026260201b60201c565b505f73ffffffffffffffffffffffffffffffffffffffff168173ffffffffffffffffffffffffffffffffffffffff160362000158575f6040517f1e4fbdf70000000000000000000000000000000000000000000000000000000081526004016200014f919062000861565b60405180910390fd5b62000169816200027760201b60201c565b50620001806006836200033a60201b90919060201c565b61012081815250506200019e6007826200033a60201b90919060201c565b6101408181525050818051906020012060e08181525050808051906020012061010081815250504660a08181525050620001dd6200038f60201b60201c565b608081815250503073ffffffffffffffffffffffffffffffffffffffff1660c08173ffffffffffffffffffffffffffffffffffffffff168152505050508060085f6101000a81548173ffffffffffffffffffffffffffffffffffffffff021916908373ffffffffffffffffffffffffffffffffffffffff160217905550505062000a4c565b8060029081620002739190620006c2565b5050565b5f60055f9054906101000a900473ffffffffffffffffffffffffffffffffffffffff1690508160055f6101000a81548173ffffffffffffffffffffffffffffffffffffffff021916908373ffffffffffffffffffffffffffffffffffffffff1602179055508173ffffffffffffffffffffffffffffffffffffffff168173ffffffffffffffffffffffffffffffffffffffff167f8be0079c531659141344cd1fd0a4f28419497f9722a3daafe3b4186f6b6457e060405160405180910390a35050565b5f6020835110156200035f576200035783620003eb60201b60201c565b905062000389565b8262000371836200045560201b60201c565b5f019081620003819190620006c2565b5060ff5f1b90505b92915050565b5f7f8b73c3c69bb8fe3d512ecc4cf759cc79239f7b179b0ffacaa9a75d522b39400f60e051610100514630604051602001620003d0959493929190620008a7565b60405160208183030381529060405280519060200120905090565b5f80829050601f815111156200043a57826040517f305a27a90000000000000000000000000000000000000000000000000000000081526004016200043191906200098c565b60405180910390fd5b8051816200044890620009dd565b5f1c175f1b915050919050565b5f819050919050565b5f81519050919050565b7f4e487b71000000000000000000000000000000000000000000000000000000005f52604160045260245ffd5b7f4e487b71000000000000000000000000000000000000000000000000000000005f52602260045260245ffd5b5f6002820490506001821680620004da57607f821691505b602082108103620004f057620004ef62000495565b5b50919050565b5f819050815f5260205f209050919050565b5f6020601f8301049050919050565b5f82821b905092915050565b5f60088302620005547fffffffffffffffffffffffffffffffffffffffffffffffffffffffffffffffff8262000517565b62000560868362000517565b95508019841693508086168417925050509392505050565b5f819050919050565b5f819050919050565b5f620005aa620005a46200059e8462000578565b62000581565b62000578565b9050919050565b5f819050919050565b620005c5836200058a565b620005dd620005d482620005b1565b84845462000523565b825550505050565b5f90565b620005f3620005e5565b62000600818484620005ba565b505050565b5b8181101562000627576200061b5f82620005e9565b60018101905062000606565b5050565b601f82111562000676576200064081620004f6565b6200064b8462000508565b810160208510156200065b578190505b620006736200066a8562000508565b83018262000605565b50505b505050565b5f82821c905092915050565b5f620006985f19846008026200067b565b1980831691505092915050565b5f620006b2838362000687565b9150826002028217905092915050565b620006cd826200045e565b67ffffffffffffffff811115620006e957620006e862000468565b5b620006f58254620004c2565b620007028282856200062b565b5f60209050601f83116001811462000738575f841562000723578287015190505b6200072f8582620006a5565b8655506200079e565b601f1984166200074886620004f6565b5f5b8281101562000771578489015182556001820191506020850194506020810190506200074a565b868310156200079157848901516200078d601f89168262000687565b8355505b6001600288020188555050505b505050505050565b5f80fd5b5f73ffffffffffffffffffffffffffffffffffffffff82169050919050565b5f620007d582620007aa565b9050919050565b620007e781620007c9565b8114620007f2575f80fd5b50565b5f815190506200080581620007dc565b92915050565b5f8060408385031215620008245762000823620007a6565b5b5f6200083385828601620007f5565b92505060206200084685828601620007f5565b9150509250929050565b6200085b81620007c9565b82525050565b5f602082019050620008765f83018462000850565b92915050565b5f819050919050565b62000890816200087c565b82525050565b620008a18162000578565b82525050565b5f60a082019050620008bc5f83018862000885565b620008cb602083018762000885565b620008da604083018662000885565b620008e9606083018562000896565b620008f8608083018462000850565b9695505050505050565b5f82825260208201905092915050565b5f5b838110156200093157808201518184015260208101905062000914565b5f8484015250505050565b5f601f19601f8301169050919050565b5f62000958826200045e565b62000964818562000902565b93506200097681856020860162000912565b62000981816200093c565b840191505092915050565b5f6020820190508181035f830152620009a681846200094c565b905092915050565b5f81519050919050565b5f819050602082019050919050565b5f620009d482516200087c565b80915050919050565b5f620009e982620009ae565b82620009f584620009b8565b905062000a0281620009c7565b9250602082101562000a455762000a407fffffffffffffffffffffffffffffffffffffffffffffffffffffffffffffffff8360200360080262000517565b831692505b5050919050565b60805160a05160c05160e051610100516101205161014051613cbc62000a9e5f395f61108501525f61104a01525f61233801525f61231701525f611ffb01525f61205101525f61207a0152613cbc5ff3fe608060405234801561000f575f80fd5b5060043610610108575f3560e01c806384e75437116100a0578063e949580e1161006f578063e949580e146102a6578063e985e9c5146102d6578063f242432a14610306578063f2fde38b14610322578063f9f992011461033e57610108565b806384e75437146102325780638da5cb5b1461024e578063a22cb4651461026c578063a89ae4ba1461028857610108565b80634e1273f4116100dc5780634e1273f4146101b8578063715018a6146101e85780637adbf973146101f257806384b0196e1461020e57610108565b8062fdd58e1461010c57806301ffc9a71461013c5780630e89341c1461016c5780632eb2c2d61461019c575b5f80fd5b6101266004803603810190610121919061250d565b61035a565b604051610133919061255a565b60405180910390f35b610156600480360381019061015191906125c8565b6103af565b604051610163919061260d565b60405180910390f35b61018660048036038101906101819190612626565b610490565b60405161019391906126db565b60405180910390f35b6101b660048036038101906101b191906128eb565b6104a2565b005b6101d260048036038101906101cd9190612a76565b6104c7565b6040516101df9190612ba3565b60405180910390f35b6101f06105ce565b005b61020c60048036038101906102079190612bc3565b6105e1565b005b61021661068b565b6040516102299796959493929190612c4f565b60405180910390f35b61024c60048036038101906102479190612d6f565b610730565b005b6102566107b9565b6040516102639190612e1e565b60405180910390f35b61028660048036038101906102819190612e61565b6107e1565b005b6102906107f7565b60405161029d9190612e1e565b60405180910390f35b6102c060048036038101906102bb9190612e9f565b61081c565b6040516102cd919061260d565b60405180910390f35b6102f060048036038101906102eb9190612ee6565b610851565b6040516102fd919061260d565b60405180910390f35b610320600480360381019061031b9190612f24565b6108df565b005b61033c60048036038101906103379190612bc3565b610904565b005b6103586004803603810190610353919061310f565b610988565b005b5f805f8381526020019081526020015f205f8473ffffffffffffffffffffffffffffffffffffffff1673ffffffffffffffffffffffffffffffffffffffff1681526020019081526020015f2054905092915050565b5f7fd9b67a26000000000000000000000000000000000000000000000000000000007bffffffffffffffffffffffffffffffffffffffffffffffffffffffff1916827bffffffffffffffffffffffffffffffffffffffffffffffffffffffff1916148061047957507f0e89341c000000000000000000000000000000000000000000000000000000007bffffffffffffffffffffffffffffffffffffffffffffffffffffffff1916827bffffffffffffffffffffffffffffffffffffffffffffffffffffffff1916145b80610489575061048882610c01565b5b9050919050565b606061049b82610c6a565b9050919050565b6104b36104ad610d49565b86610d50565b6104c08585858585610ddb565b5050505050565b6060815183511461051357815183516040517f5b05999100000000000000000000000000000000000000000000000000000000815260040161050a929190613226565b60405180910390fd5b5f835167ffffffffffffffff81111561052f5761052e6126ff565b5b60405190808252806020026020018201604052801561055d5781602001602082028036833780820191505090505b5090505f5b84518110156105c3576105996105818287610ed190919063ffffffff16565b6105948387610ee490919063ffffffff16565b61035a565b8282815181106105ac576105ab61324d565b5b602002602001018181525050806001019050610562565b508091505092915050565b6105d6610ef7565b6105df5f610f7e565b565b6105e9610ef7565b5f60085f9054906101000a900473ffffffffffffffffffffffffffffffffffffffff1690508160085f6101000a81548173ffffffffffffffffffffffffffffffffffffffff021916908373ffffffffffffffffffffffffffffffffffffffff1602179055507f078c3b417dadf69374a59793b829c52001247130433427049317bde56607b1b7818360405161067f92919061327a565b60405180910390a15050565b5f6060805f805f606061069c611041565b6106a461107c565b46305f801b5f67ffffffffffffffff8111156106c3576106c26126ff565b5b6040519080825280602002602001820160405280156106f15781602001602082028036833780820191505090505b507f0f00000000000000000000000000000000000000000000000000000000000000959493929190965096509650965096509650965090919293949596565b61073d85858585856110b7565b6107478483611263565b61076185858560405180602001604052805f8152506112c6565b838573ffffffffffffffffffffffffffffffffffffffff167fa68b7a17827602be6a6469a160d721c622f7c6188fefd38512afe3a5a2a0078885856040516107aa9291906132a1565b60405180910390a35050505050565b5f60055f9054906101000a900473ffffffffffffffffffffffffffffffffffffffff16905090565b6107f36107ec610d49565b838361135c565b5050565b60085f9054906101000a900473ffffffffffffffffffffffffffffffffffffffff1681565b6009818051602081018201805184825260208301602085012081835280955050505050505f915054906101000a900460ff1681565b5f60015f8473ffffffffffffffffffffffffffffffffffffffff1673ffffffffffffffffffffffffffffffffffffffff1681526020019081526020015f205f8373ffffffffffffffffffffffffffffffffffffffff1673ffffffffffffffffffffffffffffffffffffffff1681526020019081526020015f205f9054906101000a900460ff16905092915050565b6108f06108ea610d49565b86610d50565b6108fd8585858585611535565b5050505050565b61090c610ef7565b5f73ffffffffffffffffffffffffffffffffffffffff168173ffffffffffffffffffffffffffffffffffffffff160361097c575f6040517f1e4fbdf70000000000000000000000000000000000000000000000000000000081526004016109739190612e1e565b60405180910390fd5b61098581610f7e565b50565b878790508a8a9050146109d0576040517f08c379a00000000000000000000000000000000000000000000000000000000081526004016109c790613319565b60405180910390fd5b858590508888905014610a18576040517f08c379a0000000000000000000000000000000000000000000000000000000008152600401610a0f90613319565b60405180910390fd5b818190508686905014610a60576040517f08c379a0000000000000000000000000000000000000000000000000000000008152600401610a5790613319565b60405180910390fd5b838390508282905014610aa8576040517f08c379a0000000000000000000000000000000000000000000000000000000008152600401610a9f90613319565b60405180910390fd5b5f5b8a8a9050811015610bf457610be78b8b83818110610acb57610aca61324d565b5b9050602002016020810190610ae09190612bc3565b8a8a84818110610af357610af261324d565b5b90506020020135898985818110610b0d57610b0c61324d565b5b90506020020135888886818110610b2757610b2661324d565b5b9050602002810190610b399190613343565b8080601f0160208091040260200160405190810160405280939291908181526020018383808284375f81840152601f19601f82011690508083019250505050505050878787818110610b8e57610b8d61324d565b5b9050602002810190610ba091906133a5565b8080601f0160208091040260200160405190810160405280939291908181526020018383808284375f81840152601f19601f82011690508083019250505050505050610730565b8080600101915050610aaa565b5050505050505050505050565b5f7f01ffc9a7000000000000000000000000000000000000000000000000000000007bffffffffffffffffffffffffffffffffffffffffffffffffffffffff1916827bffffffffffffffffffffffffffffffffffffffffffffffffffffffff1916149050919050565b60605f60045f8481526020019081526020015f208054610c8990613434565b80601f0160208091040260200160405190810160405280929190818152602001828054610cb590613434565b8015610d005780601f10610cd757610100808354040283529160200191610d00565b820191905f5260205f20905b815481529060010190602001808311610ce357829003601f168201915b505050505090505f815111610d1d57610d188361163c565b610d41565b600381604051602001610d31929190613530565b6040516020818303038152906040525b915050919050565b5f33905090565b8173ffffffffffffffffffffffffffffffffffffffff168173ffffffffffffffffffffffffffffffffffffffff1614158015610d935750610d918183610851565b155b15610dd75781816040517fe237d922000000000000000000000000000000000000000000000000000000008152600401610dce92919061327a565b60405180910390fd5b5050565b5f73ffffffffffffffffffffffffffffffffffffffff168473ffffffffffffffffffffffffffffffffffffffff1603610e4b575f6040517f57f447ce000000000000000000000000000000000000000000000000000000008152600401610e429190612e1e565b60405180910390fd5b5f73ffffffffffffffffffffffffffffffffffffffff168573ffffffffffffffffffffffffffffffffffffffff1603610ebb575f6040517f01a83514000000000000000000000000000000000000000000000000000000008152600401610eb29190612e1e565b60405180910390fd5b610eca858585858560016116ce565b5050505050565b5f60208202602084010151905092915050565b5f60208202602084010151905092915050565b610eff610d49565b73ffffffffffffffffffffffffffffffffffffffff16610f1d6107b9565b73ffffffffffffffffffffffffffffffffffffffff1614610f7c57610f40610d49565b6040517f118cdaa7000000000000000000000000000000000000000000000000000000008152600401610f739190612e1e565b60405180910390fd5b565b5f60055f9054906101000a900473ffffffffffffffffffffffffffffffffffffffff1690508160055f6101000a81548173ffffffffffffffffffffffffffffffffffffffff021916908373ffffffffffffffffffffffffffffffffffffffff1602179055508173ffffffffffffffffffffffffffffffffffffffff168173ffffffffffffffffffffffffffffffffffffffff167f8be0079c531659141344cd1fd0a4f28419497f9722a3daafe3b4186f6b6457e060405160405180910390a35050565b606061107760067f000000000000000000000000000000000000000000000000000000000000000061177890919063ffffffff16565b905090565b60606110b260077f000000000000000000000000000000000000000000000000000000000000000061177890919063ffffffff16565b905090565b6009816040516110c79190613597565b90815260200160405180910390205f9054906101000a900460ff1615611122576040517f08c379a00000000000000000000000000000000000000000000000000000000081526004016111199061361d565b60405180910390fd5b60016009826040516111349190613597565b90815260200160405180910390205f6101000a81548160ff0219169083151502179055505f7fea719d1fa6293ed6d4c1bf4b3b015b84aed37de6f1aa9cdc4a5cb38d94cf28e8868686868051906020012060405160200161119995949392919061363b565b6040516020818303038152906040528051906020012090505f6111bb82611825565b90505f6111c8828561183e565b905060085f9054906101000a900473ffffffffffffffffffffffffffffffffffffffff1673ffffffffffffffffffffffffffffffffffffffff168173ffffffffffffffffffffffffffffffffffffffff1614611259576040517f08c379a0000000000000000000000000000000000000000000000000000000008152600401611250906136fc565b60405180910390fd5b5050505050505050565b8060045f8481526020019081526020015f20908161128191906138a5565b50817f6bb7ff708619ba0610cba295a58592e0451dee2622938c8755667688daf3529b6112ad84610490565b6040516112ba91906126db565b60405180910390a25050565b5f73ffffffffffffffffffffffffffffffffffffffff168473ffffffffffffffffffffffffffffffffffffffff1603611336575f6040517f57f447ce00000000000000000000000000000000000000000000000000000000815260040161132d9190612e1e565b60405180910390fd5b5f806113428585611868565b915091506113545f878484875f6116ce565b505050505050565b5f73ffffffffffffffffffffffffffffffffffffffff168373ffffffffffffffffffffffffffffffffffffffff16036113cc575f6040517f3e31884e0000000000000000000000000000000000000000000000000000000081526004016113c39190612e1e565b60405180910390fd5b5f73ffffffffffffffffffffffffffffffffffffffff168273ffffffffffffffffffffffffffffffffffffffff160361143c575f6040517fced3e1000000000000000000000000000000000000000000000000000000000081526004016114339190612e1e565b60405180910390fd5b8060015f8573ffffffffffffffffffffffffffffffffffffffff1673ffffffffffffffffffffffffffffffffffffffff1681526020019081526020015f205f8473ffffffffffffffffffffffffffffffffffffffff1673ffffffffffffffffffffffffffffffffffffffff1681526020019081526020015f205f6101000a81548160ff0219169083151502179055508173ffffffffffffffffffffffffffffffffffffffff168373ffffffffffffffffffffffffffffffffffffffff167f17307eab39ab6107e8899845ad3d59bd9653f200f220920489ca2b5937696c3183604051611528919061260d565b60405180910390a3505050565b5f73ffffffffffffffffffffffffffffffffffffffff168473ffffffffffffffffffffffffffffffffffffffff16036115a5575f6040517f57f447ce00000000000000000000000000000000000000000000000000000000815260040161159c9190612e1e565b60405180910390fd5b5f73ffffffffffffffffffffffffffffffffffffffff168573ffffffffffffffffffffffffffffffffffffffff1603611615575f6040517f01a8351400000000000000000000000000000000000000000000000000000000815260040161160c9190612e1e565b60405180910390fd5b5f806116218585611868565b9150915061163387878484875f6116ce565b50505050505050565b60606002805461164b90613434565b80601f016020809104026020016040519081016040528092919081815260200182805461167790613434565b80156116c25780601f10611699576101008083540402835291602001916116c2565b820191905f5260205f20905b8154815290600101906020018083116116a557829003601f168201915b50505050509050919050565b6116da86868686611898565b5f73ffffffffffffffffffffffffffffffffffffffff168573ffffffffffffffffffffffffffffffffffffffff1614611770575f611716610d49565b905081156117315761172c818888888888611c28565b61176e565b5f6117455f87610ee490919063ffffffff16565b90505f61175b5f87610ee490919063ffffffff16565b905061176b838a8a85858a611dd7565b50505b505b505050505050565b606060ff5f1b83146117945761178d83611f86565b905061181f565b8180546117a090613434565b80601f01602080910402602001604051908101604052809291908181526020018280546117cc90613434565b80156118175780601f106117ee57610100808354040283529160200191611817565b820191905f5260205f20905b8154815290600101906020018083116117fa57829003601f168201915b505050505090505b92915050565b5f611837611831611ff8565b836120ae565b9050919050565b5f805f8061184c86866120ee565b92509250925061185c8282612143565b82935050505092915050565b60608060405191506001825283602083015260408201905060018152826020820152604081016040529250929050565b80518251146118e257815181516040517f5b0599910000000000000000000000000000000000000000000000000000000081526004016118d9929190613226565b60405180910390fd5b5f6118eb610d49565b90505f5b8351811015611ae7575f61190c8286610ee490919063ffffffff16565b90505f6119228386610ee490919063ffffffff16565b90505f73ffffffffffffffffffffffffffffffffffffffff168873ffffffffffffffffffffffffffffffffffffffff1614611a45575f805f8481526020019081526020015f205f8a73ffffffffffffffffffffffffffffffffffffffff1673ffffffffffffffffffffffffffffffffffffffff1681526020019081526020015f20549050818110156119f157888183856040517f03dee4c50000000000000000000000000000000000000000000000000000000081526004016119e89493929190613974565b60405180910390fd5b8181035f808581526020019081526020015f205f8b73ffffffffffffffffffffffffffffffffffffffff1673ffffffffffffffffffffffffffffffffffffffff1681526020019081526020015f2081905550505b5f73ffffffffffffffffffffffffffffffffffffffff168773ffffffffffffffffffffffffffffffffffffffff1614611ada57805f808481526020019081526020015f205f8973ffffffffffffffffffffffffffffffffffffffff1673ffffffffffffffffffffffffffffffffffffffff1681526020019081526020015f205f828254611ad291906139e4565b925050819055505b50508060010190506118ef565b506001835103611ba2575f611b055f85610ee490919063ffffffff16565b90505f611b1b5f85610ee490919063ffffffff16565b90508573ffffffffffffffffffffffffffffffffffffffff168773ffffffffffffffffffffffffffffffffffffffff168473ffffffffffffffffffffffffffffffffffffffff167fc3d58168c5ae7397731d063d5bbf3d657854427343f4c083240f7aacaa2d0f628585604051611b93929190613226565b60405180910390a45050611c21565b8373ffffffffffffffffffffffffffffffffffffffff168573ffffffffffffffffffffffffffffffffffffffff168273ffffffffffffffffffffffffffffffffffffffff167f4a39dc06d4c0dbc64b70af90fd698a233a518aa5d07e595d983b8c0526c8f7fb8686604051611c18929190613a17565b60405180910390a45b5050505050565b5f8473ffffffffffffffffffffffffffffffffffffffff163b1115611dcf578373ffffffffffffffffffffffffffffffffffffffff1663bc197c8187878686866040518663ffffffff1660e01b8152600401611c88959493929190613a94565b6020604051808303815f875af1925050508015611cc357506040513d601f19601f82011682018060405250810190611cc09190613b0e565b60015b611d44573d805f8114611cf1576040519150601f19603f3d011682016040523d82523d5f602084013e611cf6565b606091505b505f815103611d3c57846040517f57f447ce000000000000000000000000000000000000000000000000000000008152600401611d339190612e1e565b60405180910390fd5b805160208201fd5b63bc197c8160e01b7bffffffffffffffffffffffffffffffffffffffffffffffffffffffff1916817bffffffffffffffffffffffffffffffffffffffffffffffffffffffff191614611dcd57846040517f57f447ce000000000000000000000000000000000000000000000000000000008152600401611dc49190612e1e565b60405180910390fd5b505b505050505050565b5f8473ffffffffffffffffffffffffffffffffffffffff163b1115611f7e578373ffffffffffffffffffffffffffffffffffffffff1663f23a6e6187878686866040518663ffffffff1660e01b8152600401611e37959493929190613b39565b6020604051808303815f875af1925050508015611e7257506040513d601f19601f82011682018060405250810190611e6f9190613b0e565b60015b611ef3573d805f8114611ea0576040519150601f19603f3d011682016040523d82523d5f602084013e611ea5565b606091505b505f815103611eeb57846040517f57f447ce000000000000000000000000000000000000000000000000000000008152600401611ee29190612e1e565b60405180910390fd5b805160208201fd5b63f23a6e6160e01b7bffffffffffffffffffffffffffffffffffffffffffffffffffffffff1916817bffffffffffffffffffffffffffffffffffffffffffffffffffffffff191614611f7c57846040517f57f447ce000000000000000000000000000000000000000000000000000000008152600401611f739190612e1e565b60405180910390fd5b505b505050505050565b60605f611f92836122a5565b90505f602067ffffffffffffffff811115611fb057611faf6126ff565b5b6040519080825280601f01601f191660200182016040528015611fe25781602001600182028036833780820191505090505b5090508181528360208201528092505050919050565b5f7f000000000000000000000000000000000000000000000000000000000000000073ffffffffffffffffffffffffffffffffffffffff163073ffffffffffffffffffffffffffffffffffffffff1614801561207357507f000000000000000000000000000000000000000000000000000000000000000046145b156120a0577f000000000000000000000000000000000000000000000000000000000000000090506120ab565b6120a86122f3565b90505b90565b5f6040517f190100000000000000000000000000000000000000000000000000000000000081528360028201528260228201526042812091505092915050565b5f805f604184510361212e575f805f602087015192506040870151915060608701515f1a905061212088828585612388565b95509550955050505061213c565b5f600285515f1b9250925092505b9250925092565b5f600381111561215657612155613b91565b5b82600381111561216957612168613b91565b5b03156122a1576001600381111561218357612182613b91565b5b82600381111561219657612195613b91565b5b036121cd576040517ff645eedf00000000000000000000000000000000000000000000000000000000815260040160405180910390fd5b600260038111156121e1576121e0613b91565b5b8260038111156121f4576121f3613b91565b5b0361223857805f1c6040517ffce698f700000000000000000000000000000000000000000000000000000000815260040161222f919061255a565b60405180910390fd5b60038081111561224b5761224a613b91565b5b82600381111561225e5761225d613b91565b5b036122a057806040517fd78bce0c0000000000000000000000000000000000000000000000000000000081526004016122979190613bbe565b60405180910390fd5b5b5050565b5f8060ff835f1c169050601f8111156122ea576040517fb3512b0c00000000000000000000000000000000000000000000000000000000815260040160405180910390fd5b80915050919050565b5f7f8b73c3c69bb8fe3d512ecc4cf759cc79239f7b179b0ffacaa9a75d522b39400f7f00000000000000000000000000000000000000000000000000000000000000007f0000000000000000000000000000000000000000000000000000000000000000463060405160200161236d959493929190613bd7565b60405160208183030381529060405280519060200120905090565b5f805f7f7fffffffffffffffffffffffffffffff5d576e7357a4501ddfe92f46681b20a0845f1c11156123c4575f600385925092509250612465565b5f6001888888886040515f81526020016040526040516123e79493929190613c43565b6020604051602081039080840390855afa158015612407573d5f803e3d5ffd5b5050506020604051035190505f73ffffffffffffffffffffffffffffffffffffffff168173ffffffffffffffffffffffffffffffffffffffff1603612458575f60015f801b93509350935050612465565b805f805f1b935093509350505b9450945094915050565b5f604051905090565b5f80fd5b5f80fd5b5f73ffffffffffffffffffffffffffffffffffffffff82169050919050565b5f6124a982612480565b9050919050565b6124b98161249f565b81146124c3575f80fd5b50565b5f813590506124d4816124b0565b92915050565b5f819050919050565b6124ec816124da565b81146124f6575f80fd5b50565b5f81359050612507816124e3565b92915050565b5f806040838503121561252357612522612478565b5b5f612530858286016124c6565b9250506020612541858286016124f9565b9150509250929050565b612554816124da565b82525050565b5f60208201905061256d5f83018461254b565b92915050565b5f7fffffffff0000000000000000000000000000000000000000000000000000000082169050919050565b6125a781612573565b81146125b1575f80fd5b50565b5f813590506125c28161259e565b92915050565b5f602082840312156125dd576125dc612478565b5b5f6125ea848285016125b4565b91505092915050565b5f8115159050919050565b612607816125f3565b82525050565b5f6020820190506126205f8301846125fe565b92915050565b5f6020828403121561263b5761263a612478565b5b5f612648848285016124f9565b91505092915050565b5f81519050919050565b5f82825260208201905092915050565b5f5b8381101561268857808201518184015260208101905061266d565b5f8484015250505050565b5f601f19601f8301169050919050565b5f6126ad82612651565b6126b7818561265b565b93506126c781856020860161266b565b6126d081612693565b840191505092915050565b5f6020820190508181035f8301526126f381846126a3565b905092915050565b5f80fd5b7f4e487b71000000000000000000000000000000000000000000000000000000005f52604160045260245ffd5b61273582612693565b810181811067ffffffffffffffff82111715612754576127536126ff565b5b80604052505050565b5f61276661246f565b9050612772828261272c565b919050565b5f67ffffffffffffffff821115612791576127906126ff565b5b602082029050602081019050919050565b5f80fd5b5f6127b86127b384612777565b61275d565b905080838252602082019050602084028301858111156127db576127da6127a2565b5b835b8181101561280457806127f088826124f9565b8452602084019350506020810190506127dd565b5050509392505050565b5f82601f830112612822576128216126fb565b5b81356128328482602086016127a6565b91505092915050565b5f80fd5b5f67ffffffffffffffff821115612859576128586126ff565b5b61286282612693565b9050602081019050919050565b828183375f83830152505050565b5f61288f61288a8461283f565b61275d565b9050828152602081018484840111156128ab576128aa61283b565b5b6128b684828561286f565b509392505050565b5f82601f8301126128d2576128d16126fb565b5b81356128e284826020860161287d565b91505092915050565b5f805f805f60a0868803121561290457612903612478565b5b5f612911888289016124c6565b9550506020612922888289016124c6565b945050604086013567ffffffffffffffff8111156129435761294261247c565b5b61294f8882890161280e565b935050606086013567ffffffffffffffff8111156129705761296f61247c565b5b61297c8882890161280e565b925050608086013567ffffffffffffffff81111561299d5761299c61247c565b5b6129a9888289016128be565b9150509295509295909350565b5f67ffffffffffffffff8211156129d0576129cf6126ff565b5b602082029050602081019050919050565b5f6129f36129ee846129b6565b61275d565b90508083825260208201905060208402830185811115612a1657612a156127a2565b5b835b81811015612a3f5780612a2b88826124c6565b845260208401935050602081019050612a18565b5050509392505050565b5f82601f830112612a5d57612a5c6126fb565b5b8135612a6d8482602086016129e1565b91505092915050565b5f8060408385031215612a8c57612a8b612478565b5b5f83013567ffffffffffffffff811115612aa957612aa861247c565b5b612ab585828601612a49565b925050602083013567ffffffffffffffff811115612ad657612ad561247c565b5b612ae28582860161280e565b9150509250929050565b5f81519050919050565b5f82825260208201905092915050565b5f819050602082019050919050565b612b1e816124da565b82525050565b5f612b2f8383612b15565b60208301905092915050565b5f602082019050919050565b5f612b5182612aec565b612b5b8185612af6565b9350612b6683612b06565b805f5b83811015612b96578151612b7d8882612b24565b9750612b8883612b3b565b925050600181019050612b69565b5085935050505092915050565b5f6020820190508181035f830152612bbb8184612b47565b905092915050565b5f60208284031215612bd857612bd7612478565b5b5f612be5848285016124c6565b91505092915050565b5f7fff0000000000000000000000000000000000000000000000000000000000000082169050919050565b612c2281612bee565b82525050565b612c318161249f565b82525050565b5f819050919050565b612c4981612c37565b82525050565b5f60e082019050612c625f83018a612c19565b8181036020830152612c7481896126a3565b90508181036040830152612c8881886126a3565b9050612c97606083018761254b565b612ca46080830186612c28565b612cb160a0830185612c40565b81810360c0830152612cc38184612b47565b905098975050505050505050565b5f67ffffffffffffffff821115612ceb57612cea6126ff565b5b612cf482612693565b9050602081019050919050565b5f612d13612d0e84612cd1565b61275d565b905082815260208101848484011115612d2f57612d2e61283b565b5b612d3a84828561286f565b509392505050565b5f82601f830112612d5657612d556126fb565b5b8135612d66848260208601612d01565b91505092915050565b5f805f805f60a08688031215612d8857612d87612478565b5b5f612d95888289016124c6565b9550506020612da6888289016124f9565b9450506040612db7888289016124f9565b935050606086013567ffffffffffffffff811115612dd857612dd761247c565b5b612de488828901612d42565b925050608086013567ffffffffffffffff811115612e0557612e0461247c565b5b612e11888289016128be565b9150509295509295909350565b5f602082019050612e315f830184612c28565b92915050565b612e40816125f3565b8114612e4a575f80fd5b50565b5f81359050612e5b81612e37565b92915050565b5f8060408385031215612e7757612e76612478565b5b5f612e84858286016124c6565b9250506020612e9585828601612e4d565b9150509250929050565b5f60208284031215612eb457612eb3612478565b5b5f82013567ffffffffffffffff811115612ed157612ed061247c565b5b612edd848285016128be565b91505092915050565b5f8060408385031215612efc57612efb612478565b5b5f612f09858286016124c6565b9250506020612f1a858286016124c6565b9150509250929050565b5f805f805f60a08688031215612f3d57612f3c612478565b5b5f612f4a888289016124c6565b9550506020612f5b888289016124c6565b9450506040612f6c888289016124f9565b9350506060612f7d888289016124f9565b925050608086013567ffffffffffffffff811115612f9e57612f9d61247c565b5b612faa888289016128be565b9150509295509295909350565b5f80fd5b5f8083601f840112612fd057612fcf6126fb565b5b8235905067ffffffffffffffff811115612fed57612fec612fb7565b5b602083019150836020820283011115613009576130086127a2565b5b9250929050565b5f8083601f840112613025576130246126fb565b5b8235905067ffffffffffffffff81111561304257613041612fb7565b5b60208301915083602082028301111561305e5761305d6127a2565b5b9250929050565b5f8083601f84011261307a576130796126fb565b5b8235905067ffffffffffffffff81111561309757613096612fb7565b5b6020830191508360208202830111156130b3576130b26127a2565b5b9250929050565b5f8083601f8401126130cf576130ce6126fb565b5b8235905067ffffffffffffffff8111156130ec576130eb612fb7565b5b602083019150836020820283011115613108576131076127a2565b5b9250929050565b5f805f805f805f805f8060a08b8d03121561312d5761312c612478565b5b5f8b013567ffffffffffffffff81111561314a5761314961247c565b5b6131568d828e01612fbb565b9a509a505060208b013567ffffffffffffffff8111156131795761317861247c565b5b6131858d828e01613010565b985098505060408b013567ffffffffffffffff8111156131a8576131a761247c565b5b6131b48d828e01613010565b965096505060608b013567ffffffffffffffff8111156131d7576131d661247c565b5b6131e38d828e01613065565b945094505060808b013567ffffffffffffffff8111156132065761320561247c565b5b6132128d828e016130ba565b92509250509295989b9194979a5092959850565b5f6040820190506132395f83018561254b565b613246602083018461254b565b9392505050565b7f4e487b71000000000000000000000000000000000000000000000000000000005f52603260045260245ffd5b5f60408201905061328d5f830185612c28565b61329a6020830184612c28565b9392505050565b5f6040820190506132b45f83018561254b565b81810360208301526132c681846126a3565b90509392505050565b7f4172726179206c656e677468206d69736d6174636800000000000000000000005f82015250565b5f61330360158361265b565b915061330e826132cf565b602082019050919050565b5f6020820190508181035f830152613330816132f7565b9050919050565b5f80fd5b5f80fd5b5f80fd5b5f808335600160200384360303811261335f5761335e613337565b5b80840192508235915067ffffffffffffffff8211156133815761338061333b565b5b60208301925060018202360383131561339d5761339c61333f565b5b509250929050565b5f80833560016020038436030381126133c1576133c0613337565b5b80840192508235915067ffffffffffffffff8211156133e3576133e261333b565b5b6020830192506001820236038313156133ff576133fe61333f565b5b509250929050565b7f4e487b71000000000000000000000000000000000000000000000000000000005f52602260045260245ffd5b5f600282049050600182168061344b57607f821691505b60208210810361345e5761345d613407565b5b50919050565b5f81905092915050565b5f819050815f5260205f209050919050565b5f815461348c81613434565b6134968186613464565b9450600182165f81146134b057600181146134c5576134f7565b60ff19831686528115158202860193506134f7565b6134ce8561346e565b5f5b838110156134ef578154818901526001820191506020810190506134d0565b838801955050505b50505092915050565b5f61350a82612651565b6135148185613464565b935061352481856020860161266b565b80840191505092915050565b5f61353b8285613480565b91506135478284613500565b91508190509392505050565b5f81519050919050565b5f81905092915050565b5f61357182613553565b61357b818561355d565b935061358b81856020860161266b565b80840191505092915050565b5f6135a28284613567565b915081905092915050565b7f556e697479496d706163743a205369676e617475726520616c726561647920755f8201527f7365640000000000000000000000000000000000000000000000000000000000602082015250565b5f61360760238361265b565b9150613612826135ad565b604082019050919050565b5f6020820190508181035f830152613634816135fb565b9050919050565b5f60a08201905061364e5f830188612c40565b61365b6020830187612c28565b613668604083018661254b565b613675606083018561254b565b6136826080830184612c40565b9695505050505050565b7f556e697479496d706163743a20496e76616c6964206f7261636c65207369676e5f8201527f6174757265000000000000000000000000000000000000000000000000000000602082015250565b5f6136e660258361265b565b91506136f18261368c565b604082019050919050565b5f6020820190508181035f830152613713816136da565b9050919050565b5f6020601f8301049050919050565b5f82821b905092915050565b5f600883026137647fffffffffffffffffffffffffffffffffffffffffffffffffffffffffffffffff82613729565b61376e8683613729565b95508019841693508086168417925050509392505050565b5f819050919050565b5f6137a96137a461379f846124da565b613786565b6124da565b9050919050565b5f819050919050565b6137c28361378f565b6137d66137ce826137b0565b848454613735565b825550505050565b5f90565b6137ea6137de565b6137f58184846137b9565b505050565b5b818110156138185761380d5f826137e2565b6001810190506137fb565b5050565b601f82111561385d5761382e8161346e565b6138378461371a565b81016020851015613846578190505b61385a6138528561371a565b8301826137fa565b50505b505050565b5f82821c905092915050565b5f61387d5f1984600802613862565b1980831691505092915050565b5f613895838361386e565b9150826002028217905092915050565b6138ae82612651565b67ffffffffffffffff8111156138c7576138c66126ff565b5b6138d18254613434565b6138dc82828561381c565b5f60209050601f83116001811461390d575f84156138fb578287015190505b613905858261388a565b86555061396c565b601f19841661391b8661346e565b5f5b828110156139425784890151825560018201915060208501945060208101905061391d565b8683101561395f578489015161395b601f89168261386e565b8355505b6001600288020188555050505b505050505050565b5f6080820190506139875f830187612c28565b613994602083018661254b565b6139a1604083018561254b565b6139ae606083018461254b565b95945050505050565b7f4e487b71000000000000000000000000000000000000000000000000000000005f52601160045260245ffd5b5f6139ee826124da565b91506139f9836124da565b9250828201905080821115613a1157613a106139b7565b5b92915050565b5f6040820190508181035f830152613a2f8185612b47565b90508181036020830152613a438184612b47565b90509392505050565b5f82825260208201905092915050565b5f613a6682613553565b613a708185613a4c565b9350613a8081856020860161266b565b613a8981612693565b840191505092915050565b5f60a082019050613aa75f830188612c28565b613ab46020830187612c28565b8181036040830152613ac68186612b47565b90508181036060830152613ada8185612b47565b90508181036080830152613aee8184613a5c565b90509695505050505050565b5f81519050613b088161259e565b92915050565b5f60208284031215613b2357613b22612478565b5b5f613b3084828501613afa565b91505092915050565b5f60a082019050613b4c5f830188612c28565b613b596020830187612c28565b613b66604083018661254b565b613b73606083018561254b565b8181036080830152613b858184613a5c565b90509695505050505050565b7f4e487b71000000000000000000000000000000000000000000000000000000005f52602160045260245ffd5b5f602082019050613bd15f830184612c40565b92915050565b5f60a082019050613bea5f830188612c40565b613bf76020830187612c40565b613c046040830186612c40565b613c11606083018561254b565b613c1e6080830184612c28565b9695505050505050565b5f60ff82169050919050565b613c3d81613c28565b82525050565b5f608082019050613c565f830187612c40565b613c636020830186613c34565b613c706040830185612c40565b613c7d6060830184612c40565b9594505050505056fea2646970667358221220cd808b263b5bdaba8b6f07a612386e3832ff4a6ab94d2274d831d1768ee294d064736f6c63430008180033",
  "linkReferences": {},
  "deployedLinkReferences": {}
}